{
  "contractName": "CentrifugeAsset",
  "abi": [
    {
      "anonymous": false,
      "inputs": [
        {
          "indexed": true,
          "internalType": "bytes32",
          "name": "asset",
          "type": "bytes32"
        }
      ],
      "name": "AssetStored",
      "type": "event"
    },
    {
      "inputs": [
        {
          "internalType": "bytes32",
          "name": "",
          "type": "bytes32"
        }
      ],
      "name": "_assetsStored",
      "outputs": [
        {
          "internalType": "bool",
          "name": "",
          "type": "bool"
        }
      ],
      "stateMutability": "view",
      "type": "function"
    },
    {
      "inputs": [
        {
          "internalType": "bytes32",
          "name": "asset",
          "type": "bytes32"
        }
      ],
      "name": "store",
      "outputs": [],
      "stateMutability": "nonpayable",
      "type": "function"
    }
  ],
  "bytecode": "0x608060405234801561001057600080fd5b50610199806100206000396000f3fe608060405234801561001057600080fd5b50600436106100365760003560e01c8063654cf88c1461003b57806396add60014610050575b600080fd5b61004e610049366004610109565b610079565b005b61006361005e366004610109565b6100f4565b6040516100709190610121565b60405180910390f35b60008181526020819052604090205460ff16156100b15760405162461bcd60e51b81526004016100a89061012c565b60405180910390fd5b600081815260208190526040808220805460ff191660011790555182917f08ae553713effae7116be03743b167b8b803449ee8fb912c2ec43dc2c824f53591a250565b60006020819052908152604090205460ff1681565b60006020828403121561011a578081fd5b5035919050565b901515815260200190565b60208082526017908201527f617373657420697320616c72656164792073746f72656400000000000000000060408201526060019056fea2646970667358221220f89402f388f8080f1cf8bf7a4acbf79555ad13a13a0cc13be21ec24dcd70389f64736f6c63430006040033",
  "source": "pragma solidity 0.6.4;\npragma experimental ABIEncoderV2;\n\n/**\n    @title Represents a bridged Centrifuge asset.\n    @author ChainSafe Systems.\n */\ncontract CentrifugeAsset {\n  mapping (bytes32 => bool) public _assetsStored;\n\n  event AssetStored(bytes32 indexed asset);\n\n  /**\n    @notice Marks {asset} as stored.\n    @param asset Hash of asset deposited on Centrifuge chain.\n    @notice {asset} must not have already been stored.\n    @notice Emits {AssetStored} event.\n   */\n  function store(bytes32 asset) external {\n      require(!_assetsStored[asset], \"asset is already stored\");\n\n      _assetsStored[asset] = true;\n      emit AssetStored(asset);\n  }\n}",
  "sourcePath": "/home/yang/trees/chainbridge-solidity-v1.0.0-eth/contracts/CentrifugeAsset.sol",
  "compiler": {
    "name": "solc",
    "version": "0.6.4+commit.1dca32f3.Emscripten.clang"
  },
  "schemaVersion": "3.1.0",
  "updatedAt": "2021-04-15T03:29:15.030Z",
  "devdoc": {
    "author": "ChainSafe Systems.",
    "methods": {
      "store(bytes32)": {
        "params": {
          "asset": "Hash of asset deposited on Centrifuge chain."
        }
      }
    },
    "title": "Represents a bridged Centrifuge asset."
  },
  "userdoc": {
    "methods": {
      "store(bytes32)": {
        "notice": "Marks {asset} as stored.{asset} must not have already been stored.Emits {AssetStored} event."
      }
    }
  }
}