{
  "contractName": "ERC20Safe",
  "abi": [
    {
      "inputs": [
        {
          "internalType": "address",
          "name": "tokenAddress",
          "type": "address"
        },
        {
          "internalType": "address",
          "name": "owner",
          "type": "address"
        },
        {
          "internalType": "uint256",
          "name": "amount",
          "type": "uint256"
        }
      ],
      "name": "fundERC20",
      "outputs": [],
      "stateMutability": "nonpayable",
      "type": "function"
    }
  ],
  "bytecode": "0x608060405234801561001057600080fd5b50610266806100206000396000f3fe608060405234801561001057600080fd5b506004361061002b5760003560e01c806395601f0914610030575b600080fd5b6100666004803603606081101561004657600080fd5b506001600160a01b03813581169160208101359091169060400135610068565b005b826100758184308561007b565b50505050565b604080516001600160a01b0380861660248301528416604482015260648082018490528251808303909101815260849091019091526020810180516001600160e01b03166323b872dd60e01b17905261007590859060006060836001600160a01b0316836040518082805190602001908083835b6020831061010e5780518252601f1990920191602091820191016100ef565b6001836020036101000a0380198251168184511680821785525050505050509050019150506000604051808303816000865af19150503d8060008114610170576040519150601f19603f3d011682016040523d82523d6000602084013e610175565b606091505b5091509150816101c1576040805162461bcd60e51b8152602060048201526012602482015271115490cc8c0e8818d85b1b0819985a5b195960721b604482015290519081900360640190fd5b805115610075578080602001905160208110156101dd57600080fd5b5051610075576040805162461bcd60e51b815260206004820181905260248201527f45524332303a206f7065726174696f6e20646964206e6f742073756363656564604482015290519081900360640190fdfea26469706673582212204a1c15e8a3a220accd26f1aeea28418d5b4f1e12d682cc83f9fbb9d30493641d64736f6c63430006040033",
  "source": "pragma solidity 0.6.4;\n\nimport \"@openzeppelin/contracts/math/SafeMath.sol\";\nimport \"@openzeppelin/contracts/token/ERC20/IERC20.sol\";\nimport \"@openzeppelin/contracts/presets/ERC20PresetMinterPauser.sol\";\nimport \"@openzeppelin/contracts/token/ERC20/ERC20Burnable.sol\";\n\n/**\n    @title Manages deposited ERC20s.\n    @author ChainSafe Systems.\n    @notice This contract is intended to be used with ERC20Handler contract.\n */\ncontract ERC20Safe {\n    using SafeMath for uint256;\n\n    /**\n        @notice Used to transfer tokens into the safe to fund proposals.\n        @param tokenAddress Address of ERC20 to transfer.\n        @param owner Address of current token owner.\n        @param amount Amount of tokens to transfer.\n     */\n    function fundERC20(address tokenAddress, address owner, uint256 amount) public {\n        IERC20 erc20 = IERC20(tokenAddress);\n        _safeTransferFrom(erc20, owner, address(this), amount);\n    }\n\n    /**\n        @notice Used to gain custody of deposited token.\n        @param tokenAddress Address of ERC20 to transfer.\n        @param owner Address of current token owner.\n        @param recipient Address to transfer tokens to.\n        @param amount Amount of tokens to transfer.\n     */\n    function lockERC20(address tokenAddress, address owner, address recipient, uint256 amount) internal {\n        IERC20 erc20 = IERC20(tokenAddress);\n        _safeTransferFrom(erc20, owner, recipient, amount);\n    }\n\n    /**\n        @notice Transfers custody of token to recipient.\n        @param tokenAddress Address of ERC20 to transfer.\n        @param recipient Address to transfer tokens to.\n        @param amount Amount of tokens to transfer.\n     */\n    function releaseERC20(address tokenAddress, address recipient, uint256 amount) internal {\n        IERC20 erc20 = IERC20(tokenAddress);\n        _safeTransfer(erc20, recipient, amount);\n    }\n\n    /**\n        @notice Used to create new ERC20s.\n        @param tokenAddress Address of ERC20 to transfer.\n        @param recipient Address to mint token to.\n        @param amount Amount of token to mint.\n     */\n    function mintERC20(address tokenAddress, address recipient, uint256 amount) internal {\n        ERC20PresetMinterPauser erc20 = ERC20PresetMinterPauser(tokenAddress);\n        erc20.mint(recipient, amount);\n\n    }\n\n    /**\n        @notice Used to burn ERC20s.\n        @param tokenAddress Address of ERC20 to burn.\n        @param owner Current owner of tokens.\n        @param amount Amount of tokens to burn.\n     */\n    function burnERC20(address tokenAddress, address owner, uint256 amount) internal {\n        ERC20Burnable erc20 = ERC20Burnable(tokenAddress);\n        erc20.burnFrom(owner, amount);\n    }\n\n    /**\n        @notice used to transfer ERC20s safely\n        @param token Token instance to transfer\n        @param to Address to transfer token to\n        @param value Amount of token to transfer\n     */\n    function _safeTransfer(IERC20 token, address to, uint256 value) private {\n        _safeCall(token, abi.encodeWithSelector(token.transfer.selector, to, value));\n    }\n\n\n    /**\n        @notice used to transfer ERC20s safely\n        @param token Token instance to transfer\n        @param from Address to transfer token from\n        @param to Address to transfer token to\n        @param value Amount of token to transfer\n     */\n    function _safeTransferFrom(IERC20 token, address from, address to, uint256 value) private {\n        _safeCall(token, abi.encodeWithSelector(token.transferFrom.selector, from, to, value));\n    }\n\n    /**\n        @notice used to make calls to ERC20s safely\n        @param token Token instance call targets\n        @param data encoded call data\n     */\n    function _safeCall(IERC20 token, bytes memory data) private {        \n        (bool success, bytes memory returndata) = address(token).call(data);\n        require(success, \"ERC20: call failed\");\n\n        if (returndata.length > 0) {\n\n            require(abi.decode(returndata, (bool)), \"ERC20: operation did not succeed\");\n        }\n    }\n\n}\n",
  "sourcePath": "/home/yang/trees/chainbridge-solidity-v1.0.0-eth/contracts/ERC20Safe.sol",
  "compiler": {
    "name": "solc",
    "version": "0.6.4+commit.1dca32f3.Emscripten.clang"
  },
  "schemaVersion": "3.1.0",
  "updatedAt": "2021-04-15T03:29:15.031Z",
  "devdoc": {
    "author": "ChainSafe Systems.",
    "methods": {
      "fundERC20(address,address,uint256)": {
        "params": {
          "amount": "Amount of tokens to transfer.",
          "owner": "Address of current token owner.",
          "tokenAddress": "Address of ERC20 to transfer."
        }
      }
    },
    "title": "Manages deposited ERC20s."
  },
  "userdoc": {
    "methods": {
      "fundERC20(address,address,uint256)": {
        "notice": "Used to transfer tokens into the safe to fund proposals."
      }
    },
    "notice": "This contract is intended to be used with ERC20Handler contract."
  }
}