{
  "contractName": "ERC721Safe",
  "abi": [
    {
      "inputs": [
        {
          "internalType": "address",
          "name": "tokenAddress",
          "type": "address"
        },
        {
          "internalType": "address",
          "name": "owner",
          "type": "address"
        },
        {
          "internalType": "uint256",
          "name": "tokenID",
          "type": "uint256"
        }
      ],
      "name": "fundERC721",
      "outputs": [],
      "stateMutability": "nonpayable",
      "type": "function"
    }
  ],
  "bytecode": "0x608060405234801561001057600080fd5b5061010c806100206000396000f3fe6080604052348015600f57600080fd5b506004361060285760003560e01c80637354298014602d575b600080fd5b606060048036036060811015604157600080fd5b506001600160a01b038135811691602081013590911690604001356062565b005b604080516323b872dd60e01b81526001600160a01b03848116600483015230602483015260448201849052915185928316916323b872dd91606480830192600092919082900301818387803b15801560b957600080fd5b505af115801560cc573d6000803e3d6000fd5b505050505050505056fea2646970667358221220d94480a6d5f7eee11d48dbfc1b4058ee4f91067f315aefa62713ecf1a2739fdb64736f6c63430006040033",
  "source": "pragma solidity 0.6.4;\n\nimport \"@openzeppelin/contracts/math/SafeMath.sol\";\nimport \"@openzeppelin/contracts/token/ERC721/IERC721.sol\";\nimport \"./ERC721MinterBurnerPauser.sol\";\n\n/**\n    @title Manages deposited ERC721s.\n    @author ChainSafe Systems.\n    @notice This contract is intended to be used with ERC721Handler contract.\n */\ncontract ERC721Safe {\n    using SafeMath for uint256;\n\n    /**\n        @notice Used to transfer tokens into the safe to fund proposals.\n        @param tokenAddress Address of ERC721 to transfer.\n        @param owner Address of current token owner.\n        @param tokenID ID of token to transfer.\n     */\n    function fundERC721(address tokenAddress, address owner, uint tokenID) public {\n        IERC721 erc721 = IERC721(tokenAddress);\n        erc721.transferFrom(owner, address(this), tokenID);\n    }\n\n    /**\n        @notice Used to gain custoday of deposited token.\n        @param tokenAddress Address of ERC721 to transfer.\n        @param owner Address of current token owner.\n        @param recipient Address to transfer token to.\n        @param tokenID ID of token to transfer.\n     */\n    function lockERC721(address tokenAddress, address owner, address recipient, uint tokenID) internal {\n        IERC721 erc721 = IERC721(tokenAddress);\n        erc721.transferFrom(owner, recipient, tokenID);\n\n    }\n\n    /**\n        @notice Transfers custody of token to recipient.\n        @param tokenAddress Address of ERC721 to transfer.\n        @param owner Address of current token owner.\n        @param recipient Address to transfer token to.\n        @param tokenID ID of token to transfer.\n     */\n    function releaseERC721(address tokenAddress, address owner, address recipient, uint256 tokenID) internal {\n        IERC721 erc721 = IERC721(tokenAddress);\n        erc721.transferFrom(owner, recipient, tokenID);\n    }\n\n    /**\n        @notice Used to create new ERC721s.\n        @param tokenAddress Address of ERC721 to mint.\n        @param recipient Address to mint token to.\n        @param tokenID ID of token to mint.\n        @param data Optional data to send along with mint call.\n     */\n    function mintERC721(address tokenAddress, address recipient, uint256 tokenID, bytes memory data) internal {\n        ERC721MinterBurnerPauser erc721 = ERC721MinterBurnerPauser(tokenAddress);\n        erc721.mint(recipient, tokenID, string(data));\n    }\n\n    /**\n        @notice Used to burn ERC721s.\n        @param tokenAddress Address of ERC721 to burn.\n        @param tokenID ID of token to burn.\n     */\n    function burnERC721(address tokenAddress, uint256 tokenID) internal {\n        ERC721MinterBurnerPauser erc721 = ERC721MinterBurnerPauser(tokenAddress);\n        erc721.burn(tokenID);\n    }\n\n}\n",
  "sourcePath": "/home/yang/trees/chainbridge-solidity-v1.0.0-eth/contracts/ERC721Safe.sol",
  "compiler": {
    "name": "solc",
    "version": "0.6.4+commit.1dca32f3.Emscripten.clang"
  },
  "schemaVersion": "3.1.0",
  "updatedAt": "2021-04-15T03:29:15.039Z",
  "devdoc": {
    "author": "ChainSafe Systems.",
    "methods": {
      "fundERC721(address,address,uint256)": {
        "params": {
          "owner": "Address of current token owner.",
          "tokenAddress": "Address of ERC721 to transfer.",
          "tokenID": "ID of token to transfer."
        }
      }
    },
    "title": "Manages deposited ERC721s."
  },
  "userdoc": {
    "methods": {
      "fundERC721(address,address,uint256)": {
        "notice": "Used to transfer tokens into the safe to fund proposals."
      }
    },
    "notice": "This contract is intended to be used with ERC721Handler contract."
  }
}