{
  "contractName": "ERC721Handler",
  "abi": [
    {
      "inputs": [
        {
          "internalType": "address",
          "name": "bridgeAddress",
          "type": "address"
        },
        {
          "internalType": "bytes32[]",
          "name": "initialResourceIDs",
          "type": "bytes32[]"
        },
        {
          "internalType": "address[]",
          "name": "initialContractAddresses",
          "type": "address[]"
        },
        {
          "internalType": "address[]",
          "name": "burnableContractAddresses",
          "type": "address[]"
        }
      ],
      "stateMutability": "nonpayable",
      "type": "constructor"
    },
    {
      "inputs": [],
      "name": "_bridgeAddress",
      "outputs": [
        {
          "internalType": "address",
          "name": "",
          "type": "address"
        }
      ],
      "stateMutability": "view",
      "type": "function"
    },
    {
      "inputs": [
        {
          "internalType": "address",
          "name": "",
          "type": "address"
        }
      ],
      "name": "_burnList",
      "outputs": [
        {
          "internalType": "bool",
          "name": "",
          "type": "bool"
        }
      ],
      "stateMutability": "view",
      "type": "function"
    },
    {
      "inputs": [
        {
          "internalType": "address",
          "name": "",
          "type": "address"
        }
      ],
      "name": "_contractWhitelist",
      "outputs": [
        {
          "internalType": "bool",
          "name": "",
          "type": "bool"
        }
      ],
      "stateMutability": "view",
      "type": "function"
    },
    {
      "inputs": [
        {
          "internalType": "uint8",
          "name": "",
          "type": "uint8"
        },
        {
          "internalType": "uint64",
          "name": "",
          "type": "uint64"
        }
      ],
      "name": "_depositRecords",
      "outputs": [
        {
          "internalType": "address",
          "name": "_tokenAddress",
          "type": "address"
        },
        {
          "internalType": "uint8",
          "name": "_lenDestinationRecipientAddress",
          "type": "uint8"
        },
        {
          "internalType": "uint8",
          "name": "_destinationChainID",
          "type": "uint8"
        },
        {
          "internalType": "bytes32",
          "name": "_resourceID",
          "type": "bytes32"
        },
        {
          "internalType": "bytes",
          "name": "_destinationRecipientAddress",
          "type": "bytes"
        },
        {
          "internalType": "address",
          "name": "_depositer",
          "type": "address"
        },
        {
          "internalType": "uint256",
          "name": "_tokenID",
          "type": "uint256"
        },
        {
          "internalType": "bytes",
          "name": "_metaData",
          "type": "bytes"
        }
      ],
      "stateMutability": "view",
      "type": "function"
    },
    {
      "inputs": [
        {
          "internalType": "bytes32",
          "name": "",
          "type": "bytes32"
        }
      ],
      "name": "_resourceIDToTokenContractAddress",
      "outputs": [
        {
          "internalType": "address",
          "name": "",
          "type": "address"
        }
      ],
      "stateMutability": "view",
      "type": "function"
    },
    {
      "inputs": [
        {
          "internalType": "address",
          "name": "",
          "type": "address"
        }
      ],
      "name": "_tokenContractAddressToResourceID",
      "outputs": [
        {
          "internalType": "bytes32",
          "name": "",
          "type": "bytes32"
        }
      ],
      "stateMutability": "view",
      "type": "function"
    },
    {
      "inputs": [],
      "name": "_wtokenAddress",
      "outputs": [
        {
          "internalType": "address",
          "name": "",
          "type": "address"
        }
      ],
      "stateMutability": "view",
      "type": "function"
    },
    {
      "inputs": [
        {
          "internalType": "address",
          "name": "tokenAddress",
          "type": "address"
        },
        {
          "internalType": "address",
          "name": "owner",
          "type": "address"
        },
        {
          "internalType": "uint256",
          "name": "tokenID",
          "type": "uint256"
        }
      ],
      "name": "fundERC721",
      "outputs": [],
      "stateMutability": "nonpayable",
      "type": "function"
    },
    {
      "inputs": [
        {
          "internalType": "address",
          "name": "contractAddress",
          "type": "address"
        }
      ],
      "name": "setBurnable",
      "outputs": [],
      "stateMutability": "nonpayable",
      "type": "function"
    },
    {
      "inputs": [
        {
          "internalType": "bytes32",
          "name": "resourceID",
          "type": "bytes32"
        },
        {
          "internalType": "address",
          "name": "contractAddress",
          "type": "address"
        }
      ],
      "name": "setResource",
      "outputs": [],
      "stateMutability": "nonpayable",
      "type": "function"
    },
    {
      "inputs": [
        {
          "internalType": "uint64",
          "name": "depositNonce",
          "type": "uint64"
        },
        {
          "internalType": "uint8",
          "name": "destId",
          "type": "uint8"
        }
      ],
      "name": "getDepositRecord",
      "outputs": [
        {
          "components": [
            {
              "internalType": "address",
              "name": "_tokenAddress",
              "type": "address"
            },
            {
              "internalType": "uint8",
              "name": "_lenDestinationRecipientAddress",
              "type": "uint8"
            },
            {
              "internalType": "uint8",
              "name": "_destinationChainID",
              "type": "uint8"
            },
            {
              "internalType": "bytes32",
              "name": "_resourceID",
              "type": "bytes32"
            },
            {
              "internalType": "bytes",
              "name": "_destinationRecipientAddress",
              "type": "bytes"
            },
            {
              "internalType": "address",
              "name": "_depositer",
              "type": "address"
            },
            {
              "internalType": "uint256",
              "name": "_tokenID",
              "type": "uint256"
            },
            {
              "internalType": "bytes",
              "name": "_metaData",
              "type": "bytes"
            }
          ],
          "internalType": "struct ERC721Handler.DepositRecord",
          "name": "",
          "type": "tuple"
        }
      ],
      "stateMutability": "view",
      "type": "function"
    },
    {
      "inputs": [
        {
          "internalType": "bytes32",
          "name": "resourceID",
          "type": "bytes32"
        },
        {
          "internalType": "uint8",
          "name": "destinationChainID",
          "type": "uint8"
        },
        {
          "internalType": "uint64",
          "name": "depositNonce",
          "type": "uint64"
        },
        {
          "internalType": "address",
          "name": "depositer",
          "type": "address"
        },
        {
          "internalType": "bytes",
          "name": "data",
          "type": "bytes"
        }
      ],
      "name": "deposit",
      "outputs": [],
      "stateMutability": "nonpayable",
      "type": "function"
    },
    {
      "inputs": [
        {
          "internalType": "bytes32",
          "name": "resourceID",
          "type": "bytes32"
        },
        {
          "internalType": "bytes",
          "name": "data",
          "type": "bytes"
        }
      ],
      "name": "executeProposal",
      "outputs": [],
      "stateMutability": "nonpayable",
      "type": "function"
    },
    {
      "inputs": [
        {
          "internalType": "address",
          "name": "tokenAddress",
          "type": "address"
        },
        {
          "internalType": "address",
          "name": "recipient",
          "type": "address"
        },
        {
          "internalType": "uint256",
          "name": "tokenID",
          "type": "uint256"
        }
      ],
      "name": "withdraw",
      "outputs": [],
      "stateMutability": "nonpayable",
      "type": "function"
    }
  ],
  "bytecode": "0x60806040523480156200001157600080fd5b506040516200197538038062001975833981016040819052620000349162000292565b81518351146200007b576040517f08c379a00000000000000000000000000000000000000000000000000000000081526004016200007290620003f0565b60405180910390fd5b600080546001600160a01b0319166001600160a01b0386161781555b8351811015620000e457620000db848281518110620000b257fe5b6020026020010151848381518110620000c757fe5b60200260200101516200012b60201b60201c565b60010162000097565b5060005b81518110156200012057620001178282815181106200010357fe5b60200260200101516200017b60201b60201c565b600101620000e8565b505050505062000494565b600082815260026020908152604080832080546001600160a01b039095166001600160a01b031990951685179055928252600381528282209390935560049092529020805460ff19166001179055565b6001600160a01b03811660009081526004602052604090205460ff16620001d0576040517f08c379a0000000000000000000000000000000000000000000000000000000008152600401620000729062000393565b6001600160a01b03166000908152600560205260409020805460ff19166001179055565b80516001600160a01b03811681146200020c57600080fd5b92915050565b600082601f83011262000223578081fd5b81516200023a620002348262000474565b6200044d565b8181529150602080830190848101818402860182018710156200025c57600080fd5b60005b848110156200028757620002748883620001f4565b845292820192908201906001016200025f565b505050505092915050565b60008060008060808587031215620002a8578384fd5b620002b48686620001f4565b602086810151919550906001600160401b0380821115620002d3578586fd5b81880189601f820112620002e5578687fd5b80519250620002f8620002348462000474565b83815284810190828601868602840187018d10156200031557898afd5b8993505b858410156200033957805183526001939093019291860191860162000319565b5060408b0151909850945050508083111562000353578485fd5b6200036189848a0162000212565b9450606088015192508083111562000377578384fd5b5050620003878782880162000212565b91505092959194509250565b60208082526024908201527f70726f766964656420636f6e7472616374206973206e6f742077686974656c6960408201527f7374656400000000000000000000000000000000000000000000000000000000606082015260800190565b6020808252603c908201527f696e697469616c5265736f7572636549447320616e6420696e697469616c436f60408201527f6e7472616374416464726573736573206c656e206d69736d6174636800000000606082015260800190565b6040518181016001600160401b03811182821017156200046c57600080fd5b604052919050565b60006001600160401b038211156200048a578081fd5b5060209081020190565b6114d180620004a46000396000f3fe608060405234801561001057600080fd5b50600436106100ea5760003560e01c8063735429801161008c578063ba484c0911610066578063ba484c09146101d0578063c8ba6c87146101f0578063d9caed1214610210578063e248cff214610223576100ea565b806373542980146101975780637f79bea8146101aa578063b8fa3736146101bd576100ea565b806338995da9116100c857806338995da9146101355780634402027f1461014857806353ec41051461016f5780636a70d08114610177576100ea565b806307b7ed99146100ef5780630a6d55d814610104578063318c136e1461012d575b600080fd5b6101026100fd366004610f00565b610236565b005b610117610112366004610f7b565b61024a565b60405161012491906111f5565b60405180910390f35b610117610265565b61010261014336600461100c565b610274565b61015b61015636600461115b565b610559565b604051610124989796959493929190611254565b6101176106d4565b61018a610185366004610f00565b6106e3565b60405161012491906112c3565b6101026101a5366004610f1b565b6106f8565b61018a6101b8366004610f00565b610762565b6101026101cb366004610f93565b610777565b6101e36101de366004611127565b61078d565b60405161012491906113af565b6102036101fe366004610f00565b61094f565b60405161012491906112ce565b61010261021e366004610f1b565b610961565b610102610231366004610fc2565b61097a565b61023e610a54565b61024781610a80565b50565b6002602052600090815260409020546001600160a01b031681565b6000546001600160a01b031681565b61027c610a54565b60008060608060c435925060e4359350604051915083820160200160405260e4360360e4833760008a8152600260209081526040808320546001600160a01b031680845260049092529091205460ff166102f15760405162461bcd60e51b81526004016102e890611367565b60405180910390fd5b6103116001600160a01b038216635b5e139f60e01b63ffffffff610adc16565b1561039c5760405163c87b56dd60e01b815281906001600160a01b0382169063c87b56dd906103449088906004016112ce565b60006040518083038186803b15801561035c57600080fd5b505afa158015610370573d6000803e3d6000fd5b505050506040513d6000823e601f3d908101601f19168201604052610398919081019061108c565b9250505b6001600160a01b03811660009081526005602052604090205460ff16156103cc576103c78185610aff565b6103d8565b6103d881893087610b64565b604051806101000160405280826001600160a01b031681526020018660ff1681526020018b60ff1681526020018c8152602001848152602001896001600160a01b0316815260200185815260200183815250600660008c60ff1660ff16815260200190815260200160002060008b67ffffffffffffffff1667ffffffffffffffff16815260200190815260200160002060008201518160000160006101000a8154816001600160a01b0302191690836001600160a01b0316021790555060208201518160000160146101000a81548160ff021916908360ff16021790555060408201518160000160156101000a81548160ff021916908360ff1602179055506060820151816001015560808201518160020190805190602001906104fd929190610d9f565b5060a08201516003820180546001600160a01b0319166001600160a01b0390921691909117905560c0820151600482015560e08201518051610549916005840191602090910190610d9f565b5050505050505050505050505050565b600660209081526000928352604080842082529183529181902080546001808301546002808501805487516101009582161595909502600019011691909104601f81018890048802840188019096528583526001600160a01b03841696600160a01b850460ff90811697600160a81b90960416959294929392908301828280156106245780601f106105f957610100808354040283529160200191610624565b820191906000526020600020905b81548152906001019060200180831161060757829003601f168201915b505050506003830154600484015460058501805460408051602060026101006001861615026000190190941693909304601f810184900484028201840190925281815296976001600160a01b0390951696939550908301828280156106ca5780601f1061069f576101008083540402835291602001916106ca565b820191906000526020600020905b8154815290600101906020018083116106ad57829003601f168201915b5050505050905088565b6001546001600160a01b031681565b60056020526000908152604090205460ff1681565b6040516323b872dd60e01b815283906001600160a01b038216906323b872dd9061072a90869030908790600401611209565b600060405180830381600087803b15801561074457600080fd5b505af1158015610758573d6000803e3d6000fd5b5050505050505050565b60046020526000908152604090205460ff1681565b61077f610a54565b6107898282610bcf565b5050565b610795610e1d565b60ff828116600090815260066020908152604080832067ffffffffffffffff881684528252918290208251610100808201855282546001600160a01b0381168352600160a01b8104871683860152600160a81b9004909516818501526001808301546060830152600280840180548751938116159098026000190190971604601f81018590048502820185019095528481529094919360808601939192918301828280156108845780601f1061085957610100808354040283529160200191610884565b820191906000526020600020905b81548152906001019060200180831161086757829003601f168201915b505050918352505060038201546001600160a01b03166020808301919091526004830154604080840191909152600584018054825160026101006001841615026000190190921691909104601f81018590048502820185019093528281526060909401939290919083018282801561093d5780601f106109125761010080835404028352916020019161093d565b820191906000526020600020905b81548152906001019060200180831161092057829003601f168201915b50505050508152505090505b92915050565b60036020526000908152604090205481565b610969610a54565b61097583308484610b64565b505050565b610982610a54565b604080516084803580830184019093526064359260609160a48201359060a31936839003019085376040519250808301604001604052508060a40180360381843750506020828101516000888152600283526040808220546001600160a01b0316808352600490945290205490919060ff16610a105760405162461bcd60e51b81526004016102e890611367565b6001600160a01b03811660009081526005602052604090205460ff1615610a4557610a40818360601c8786610c1f565b610758565b61075881308460601c88610b64565b6000546001600160a01b03163314610a7e5760405162461bcd60e51b81526004016102e8906112ec565b565b6001600160a01b03811660009081526004602052604090205460ff16610ab85760405162461bcd60e51b81526004016102e890611323565b6001600160a01b03166000908152600560205260409020805460ff19166001179055565b6000610ae783610c51565b8015610af85750610af88383610c84565b9392505050565b604051630852cd8d60e31b815282906001600160a01b038216906342966c6890610b2d9085906004016112ce565b600060405180830381600087803b158015610b4757600080fd5b505af1158015610b5b573d6000803e3d6000fd5b50505050505050565b6040516323b872dd60e01b815284906001600160a01b038216906323b872dd90610b9690879087908790600401611209565b600060405180830381600087803b158015610bb057600080fd5b505af1158015610bc4573d6000803e3d6000fd5b505050505050505050565b600082815260026020908152604080832080546001600160a01b039095166001600160a01b031990951685179055928252600381528282209390935560049092529020805460ff19166001179055565b6040516334ff261960e21b815284906001600160a01b0382169063d3fc986490610b969087908790879060040161122d565b6000610c64826301ffc9a760e01b610c84565b80156109495750610c7d826001600160e01b0319610c84565b1592915050565b6000806000610c938585610caa565b91509150818015610ca15750805b95945050505050565b60008060606301ffc9a760e01b84604051602401610cc891906112d7565b604051602081830303815290604052906001600160e01b0319166020820180516001600160e01b038381831617835250505050905060006060866001600160a01b031661753084604051610d1c91906111d9565b6000604051808303818686fa925050503d8060008114610d58576040519150601f19603f3d011682016040523d82523d6000602084013e610d5d565b606091505b5091509150602081511015610d7b5760008094509450505050610d98565b8181806020019051810190610d909190610f5b565b945094505050505b9250929050565b828054600181600116156101000203166002900490600052602060002090601f016020900481019282601f10610de057805160ff1916838001178555610e0d565b82800160010185558215610e0d579182015b82811115610e0d578251825591602001919060010190610df2565b50610e19929150610e63565b5090565b604080516101008101825260008082526020820181905291810182905260608082018390526080820181905260a0820183905260c082019290925260e081019190915290565b610e7d91905b80821115610e195760008155600101610e69565b90565b80356001600160a01b038116811461094957600080fd5b60008083601f840112610ea8578182fd5b50813567ffffffffffffffff811115610ebf578182fd5b602083019150836020828501011115610d9857600080fd5b803567ffffffffffffffff8116811461094957600080fd5b803560ff8116811461094957600080fd5b600060208284031215610f11578081fd5b610af88383610e80565b600080600060608486031215610f2f578182fd5b8335610f3a81611486565b92506020840135610f4a81611486565b929592945050506040919091013590565b600060208284031215610f6c578081fd5b81518015158114610af8578182fd5b600060208284031215610f8c578081fd5b5035919050565b60008060408385031215610fa5578182fd5b823591506020830135610fb781611486565b809150509250929050565b600080600060408486031215610fd6578283fd5b83359250602084013567ffffffffffffffff811115610ff3578283fd5b610fff86828701610e97565b9497909650939450505050565b60008060008060008060a08789031215611024578182fd5b863595506110358860208901610eef565b94506110448860408901610ed7565b93506110538860608901610e80565b9250608087013567ffffffffffffffff81111561106e578283fd5b61107a89828a01610e97565b979a9699509497509295939492505050565b60006020828403121561109d578081fd5b815167ffffffffffffffff808211156110b4578283fd5b81840185601f8201126110c5578384fd5b80519250818311156110d5578384fd5b604051601f8401601f1916810160200183811182821017156110f5578586fd5b60405283815281840160200187101561110c578485fd5b61111d846020830160208501611456565b9695505050505050565b60008060408385031215611139578182fd5b6111438484610ed7565b91506111528460208501610eef565b90509250929050565b6000806040838503121561116d578182fd5b823560ff8116811461117d578283fd5b9150602083013567ffffffffffffffff81168114610fb7578182fd5b6001600160a01b03169052565b600081518084526111be816020860160208601611456565b601f01601f19169290920160200192915050565b60ff169052565b600082516111eb818460208701611456565b9190910192915050565b6001600160a01b0391909116815260200190565b6001600160a01b039384168152919092166020820152604081019190915260600190565b600060018060a01b038516825283602083015260606040830152610ca160608301846111a6565b6001600160a01b03898116825260ff8981166020840152881660408301526060820187905261010060808301819052600091611292848301896111a6565b81881660a08601528660c086015284810360e08601526112b281876111a6565b9d9c50505050505050505050505050565b901515815260200190565b90815260200190565b6001600160e01b031991909116815260200190565b6020808252601e908201527f73656e646572206d7573742062652062726964676520636f6e74726163740000604082015260600190565b60208082526024908201527f70726f766964656420636f6e7472616374206973206e6f742077686974656c696040820152631cdd195960e21b606082015260800190565b60208082526028908201527f70726f766964656420746f6b656e41646472657373206973206e6f74207768696040820152671d195b1a5cdd195960c21b606082015260800190565b6000602082526113bf835161144a565b602083015260208301516113d660408401826111d2565b5060408301516113e960608401826111d2565b506060830151608083015260808301516101008060a08501526114106101208501836111a6565b60a0860151925061142460c0860184611199565b60c086015160e086015260e08601519250601f19858203018286015261111d81846111a6565b6001600160a01b031690565b60005b83811015611471578181015183820152602001611459565b83811115611480576000848401525b50505050565b6001600160a01b038116811461024757600080fdfea26469706673582212204366861cc4ca00abe7f938bfc4e056a56a4b322730e45233a75540d789b22b6e64736f6c63430006040033",
  "source": "pragma solidity 0.6.4;\npragma experimental ABIEncoderV2;\n\nimport \"../interfaces/IDepositExecute.sol\";\nimport \"./HandlerHelpers.sol\";\nimport \"../ERC721Safe.sol\";\nimport \"../ERC721MinterBurnerPauser.sol\";\nimport \"@openzeppelin/contracts/introspection/ERC165Checker.sol\";\nimport \"@openzeppelin/contracts/token/ERC721/IERC721Metadata.sol\";\n\n\n/**\n    @title Handles ERC721 deposits and deposit executions.\n    @author ChainSafe Systems.\n    @notice This contract is intended to be used with the Bridge contract.\n */\ncontract ERC721Handler is IDepositExecute, HandlerHelpers, ERC721Safe {\n    using ERC165Checker for address;\n\n    bytes4 private constant _INTERFACE_ERC721_METADATA = 0x5b5e139f;\n\n    struct DepositRecord {\n        address _tokenAddress;\n        uint8    _lenDestinationRecipientAddress;\n        uint8   _destinationChainID;\n        bytes32 _resourceID;\n        bytes   _destinationRecipientAddress;\n        address _depositer;\n        uint    _tokenID;\n        bytes   _metaData;\n    }\n\n    // DepositNonce => Deposit Record\n    mapping (uint8 => mapping (uint64 => DepositRecord)) public _depositRecords;\n\n    /**\n        @param bridgeAddress Contract address of previously deployed Bridge.\n        @param initialResourceIDs Resource IDs are used to identify a specific contract address.\n        These are the Resource IDs this contract will initially support.\n        @param initialContractAddresses These are the addresses the {initialResourceIDs} will point to, and are the contracts that will be\n        called to perform various deposit calls.\n        @param burnableContractAddresses These addresses will be set as burnable and when {deposit} is called, the deposited token will be burned.\n        When {executeProposal} is called, new tokens will be minted.\n\n        @dev {initialResourceIDs} and {initialContractAddresses} must have the same length (one resourceID for every address).\n        Also, these arrays must be ordered in the way that {initialResourceIDs}[0] is the intended resourceID for {initialContractAddresses}[0].\n     */\n    constructor(\n        address bridgeAddress,\n        bytes32[] memory initialResourceIDs,\n        address[] memory initialContractAddresses,\n        address[] memory burnableContractAddresses\n    ) public {\n        require(initialResourceIDs.length == initialContractAddresses.length,\n            \"initialResourceIDs and initialContractAddresses len mismatch\");\n\n        _bridgeAddress = bridgeAddress;\n\n        for (uint256 i = 0; i < initialResourceIDs.length; i++) {\n            _setResource(initialResourceIDs[i], initialContractAddresses[i]);\n        }\n\n        for (uint256 i = 0; i < burnableContractAddresses.length; i++) {\n            _setBurnable(burnableContractAddresses[i]);\n        }\n    }\n\n    /**\n        @param depositNonce This ID will have been generated by the Bridge contract.\n        @param destId ID of chain deposit will be bridged to.\n        @return DepositRecord which consists of:\n        - _tokenAddress Address used when {deposit} was executed.\n        - _destinationChainID ChainID deposited tokens are intended to end up on.\n        - _resourceID ResourceID used when {deposit} was executed.\n        - _lenDestinationRecipientAddress Used to parse recipient's address from {_destinationRecipientAddress}\n        - _destinationRecipientAddress Address tokens are intended to be deposited to on desitnation chain.\n        - _depositer Address that initially called {deposit} in the Bridge contract.\n        - _tokenID ID of ERC721.\n        - _metaData Optional ERC721 metadata.\n    */\n    function getDepositRecord(uint64 depositNonce, uint8 destId) external view returns (DepositRecord memory) {\n        return _depositRecords[destId][depositNonce];\n    }\n\n    /**\n        @notice A deposit is initiatied by making a deposit in the Bridge contract.\n        @param destinationChainID Chain ID of chain token is expected to be bridged to.\n        @param depositNonce This value is generated as an ID by the Bridge contract.\n        @param depositer Address of account making the deposit in the Bridge contract.\n        @param data Consists of: {resourceID}, {tokenID}, {lenDestinationRecipientAddress},\n        and {destinationRecipientAddress} all padded to 32 bytes.\n        @notice Data passed into the function should be constructed as follows:\n        tokenID                                     uint256    bytes    0  - 32\n        destinationRecipientAddress     length      uint256    bytes    32 - 64\n        destinationRecipientAddress                   bytes    bytes    64 - (64 + len(destinationRecipientAddress))\n        @notice If the corresponding {tokenAddress} for the parsed {resourceID} supports {_INTERFACE_ERC721_METADATA},\n        then {metaData} will be set according to the {tokenURI} method in the token contract.\n        @dev Depending if the corresponding {tokenAddress} for the parsed {resourceID} is\n        marked true in {_burnList}, deposited tokens will be burned, if not, they will be locked.\n     */\n    function deposit(bytes32    resourceID,\n                    uint8       destinationChainID,\n                    uint64      depositNonce,\n                    address     depositer,\n                    bytes       calldata data\n                    ) external override onlyBridge {\n        uint         lenDestinationRecipientAddress;\n        uint         tokenID;\n        bytes memory destinationRecipientAddress;\n        bytes memory metaData;\n\n        assembly {\n\n            // Load tokenID from data + 32\n            tokenID := calldataload(0xC4)\n\n            // Load length of recipient address from data + 96\n            lenDestinationRecipientAddress := calldataload(0xE4)\n            // Load free mem pointer for recipient\n            destinationRecipientAddress := mload(0x40)\n            // Store recipient address\n            mstore(0x40, add(0x20, add(destinationRecipientAddress, lenDestinationRecipientAddress)))\n\n            // func sig (4) + destinationChainId (padded to 32) + depositNonce (32) + depositor (32) +\n            // bytes lenght (32) + resourceId (32) + tokenId (32) + length (32) = 0xE4\n\n            calldatacopy(\n                destinationRecipientAddress,    // copy to destinationRecipientAddress\n                0xE4,                           // copy from calldata after destinationRecipientAddress length declaration @0xE4\n                sub(calldatasize(), 0xE4)       // copy size (calldatasize - (0xE4 + 0x20))\n            )\n        }\n\n        address tokenAddress = _resourceIDToTokenContractAddress[resourceID];\n        require(_contractWhitelist[tokenAddress], \"provided tokenAddress is not whitelisted\");\n\n        // Check if the contract supports metadata, fetch it if it does\n        if (tokenAddress.supportsInterface(_INTERFACE_ERC721_METADATA)) {\n            IERC721Metadata erc721 = IERC721Metadata(tokenAddress);\n            metaData = bytes(erc721.tokenURI(tokenID));\n        }\n\n        if (_burnList[tokenAddress]) {\n            burnERC721(tokenAddress, tokenID);\n        } else {\n            lockERC721(tokenAddress, depositer, address(this), tokenID);\n        }\n\n        _depositRecords[destinationChainID][depositNonce] = DepositRecord(\n            tokenAddress,\n            uint8(lenDestinationRecipientAddress),\n            uint8(destinationChainID),\n            resourceID,\n            destinationRecipientAddress,\n            depositer,\n            tokenID,\n            metaData\n        );\n    }\n\n    /**\n        @notice Proposal execution should be initiated when a proposal is finalized in the Bridge contract.\n        by a relayer on the deposit's destination chain.\n        @param data Consists of {tokenID}, {resourceID}, {lenDestinationRecipientAddress},\n        {destinationRecipientAddress}, {lenMeta}, and {metaData} all padded to 32 bytes.\n        @notice Data passed into the function should be constructed as follows:\n        tokenID                                     uint256    bytes    0  - 32\n        destinationRecipientAddress     length      uint256    bytes    32 - 64\n        destinationRecipientAddress                   bytes    bytes    64 - (64 + len(destinationRecipientAddress))\n        metadata                        length      uint256    bytes    (64 + len(destinationRecipientAddress)) - (64 + len(destinationRecipientAddress) + 32)\n        metadata                                      bytes    bytes    (64 + len(destinationRecipientAddress) + 32) - END\n     */\n    function executeProposal(bytes32 resourceID, bytes calldata data) external override onlyBridge {\n        uint256         tokenID;\n        bytes  memory   destinationRecipientAddress;\n        bytes  memory   metaData;\n\n        assembly {\n            tokenID    := calldataload(0x64)\n\n\n            // set up destinationRecipientAddress\n            destinationRecipientAddress        := mload(0x40)              // load free memory pointer\n            let lenDestinationRecipientAddress := calldataload(0x84)\n\n            // set up metaData\n            // 0xA4 is a combination of 0x24 (position of {data} in calldata) and\n            // 0x80 is the relative position of the {metadata} length in {data}\n            let lenMeta := calldataload(add(0xA4, lenDestinationRecipientAddress))\n\n            mstore(0x40, add(0x40, add(destinationRecipientAddress, lenDestinationRecipientAddress))) // shift free memory pointer\n\n            calldatacopy(\n                destinationRecipientAddress,                             // copy to destinationRecipientAddress\n                0x84,                                                    // copy from calldata after destinationRecipientAddress length declaration @0x84\n                sub(calldatasize(), add(0x84, add(0x20, lenMeta)))       // copy size (calldatasize - (0xC4 + the space metaData takes up))\n            )\n\n            // metadata has variable length\n            // load free memory pointer to store metadata\n            metaData := mload(0x40)\n\n            // incrementing free memory pointer\n            mstore(0x40, add(0x40, add(metaData, lenMeta)))\n\n            // metadata is located at (0x84 + 0x20 + lenDestinationRecipientAddress) in calldata\n            let metaDataLoc := add(0xA4, lenDestinationRecipientAddress)\n\n            // in the calldata, metadata is stored @0x124 after accounting for function signature and the depositNonce\n            calldatacopy(\n                metaData,                           // copy to metaData\n                metaDataLoc,                       // copy from calldata after metaData length declaration\n                sub(calldatasize(), metaDataLoc)   // copy size (calldatasize - metaDataLoc)\n            )\n        }\n\n        bytes20 recipientAddress;\n\n        assembly {\n            recipientAddress := mload(add(destinationRecipientAddress, 0x20))\n        }\n\n        address tokenAddress = _resourceIDToTokenContractAddress[resourceID];\n        require(_contractWhitelist[address(tokenAddress)], \"provided tokenAddress is not whitelisted\");\n\n        if (_burnList[tokenAddress]) {\n            mintERC721(tokenAddress, address(recipientAddress), tokenID, metaData);\n        } else {\n            releaseERC721(tokenAddress, address(this), address(recipientAddress), tokenID);\n        }\n    }\n\n    /**\n        @notice Used to manually release ERC721 tokens from ERC721Safe.\n        @param tokenAddress Address of token contract to release.\n        @param recipient Address to release token to.\n        @param tokenID The ERC721 token ID to release.\n     */\n    function withdraw(address tokenAddress, address recipient, uint tokenID) external override onlyBridge {\n        releaseERC721(tokenAddress, address(this), recipient, tokenID);\n    }\n}\n",
  "sourcePath": "/home/yang/trees/chainbridge-solidity-v1.0.0-eth/contracts/handlers/ERC721Handler.sol",
  "compiler": {
    "name": "solc",
    "version": "0.6.4+commit.1dca32f3.Emscripten.clang"
  },
  "schemaVersion": "3.1.0",
  "updatedAt": "2021-04-15T03:29:15.061Z",
  "devdoc": {
    "author": "ChainSafe Systems.",
    "methods": {
      "constructor": {
        "details": "{initialResourceIDs} and {initialContractAddresses} must have the same length (one resourceID for every address). Also, these arrays must be ordered in the way that {initialResourceIDs}[0] is the intended resourceID for {initialContractAddresses}[0].",
        "params": {
          "bridgeAddress": "Contract address of previously deployed Bridge.",
          "burnableContractAddresses": "These addresses will be set as burnable and when {deposit} is called, the deposited token will be burned. When {executeProposal} is called, new tokens will be minted.",
          "initialContractAddresses": "These are the addresses the {initialResourceIDs} will point to, and are the contracts that will be called to perform various deposit calls.",
          "initialResourceIDs": "Resource IDs are used to identify a specific contract address. These are the Resource IDs this contract will initially support."
        }
      },
      "deposit(bytes32,uint8,uint64,address,bytes)": {
        "details": "Depending if the corresponding {tokenAddress} for the parsed {resourceID} is marked true in {_burnList}, deposited tokens will be burned, if not, they will be locked.",
        "params": {
          "data": "Consists of: {resourceID}, {tokenID}, {lenDestinationRecipientAddress}, and {destinationRecipientAddress} all padded to 32 bytes.",
          "depositNonce": "This value is generated as an ID by the Bridge contract.",
          "depositer": "Address of account making the deposit in the Bridge contract.",
          "destinationChainID": "Chain ID of chain token is expected to be bridged to."
        }
      },
      "executeProposal(bytes32,bytes)": {
        "params": {
          "data": "Consists of {tokenID}, {resourceID}, {lenDestinationRecipientAddress}, {destinationRecipientAddress}, {lenMeta}, and {metaData} all padded to 32 bytes."
        }
      },
      "fundERC721(address,address,uint256)": {
        "params": {
          "owner": "Address of current token owner.",
          "tokenAddress": "Address of ERC721 to transfer.",
          "tokenID": "ID of token to transfer."
        }
      },
      "getDepositRecord(uint64,uint8)": {
        "params": {
          "depositNonce": "This ID will have been generated by the Bridge contract.",
          "destId": "ID of chain deposit will be bridged to."
        },
        "returns": {
          "_0": "DepositRecord which consists of: - _tokenAddress Address used when {deposit} was executed. - _destinationChainID ChainID deposited tokens are intended to end up on. - _resourceID ResourceID used when {deposit} was executed. - _lenDestinationRecipientAddress Used to parse recipient's address from {_destinationRecipientAddress} - _destinationRecipientAddress Address tokens are intended to be deposited to on desitnation chain. - _depositer Address that initially called {deposit} in the Bridge contract. - _tokenID ID of ERC721. - _metaData Optional ERC721 metadata."
        }
      },
      "setBurnable(address)": {
        "params": {
          "contractAddress": "Address of contract to be used when making or executing deposits."
        }
      },
      "setResource(bytes32,address)": {
        "params": {
          "contractAddress": "Address of contract to be called when a deposit is made and a deposited is executed.",
          "resourceID": "ResourceID to be used when making deposits."
        }
      },
      "withdraw(address,address,uint256)": {
        "params": {
          "recipient": "Address to release token to.",
          "tokenAddress": "Address of token contract to release.",
          "tokenID": "The ERC721 token ID to release."
        }
      }
    },
    "title": "Handles ERC721 deposits and deposit executions."
  },
  "userdoc": {
    "methods": {
      "deposit(bytes32,uint8,uint64,address,bytes)": {
        "notice": "A deposit is initiatied by making a deposit in the Bridge contract.Data passed into the function should be constructed as follows: tokenID                                     uint256    bytes    0  - 32 destinationRecipientAddress     length      uint256    bytes    32 - 64 destinationRecipientAddress                   bytes    bytes    64 - (64 + len(destinationRecipientAddress))If the corresponding {tokenAddress} for the parsed {resourceID} supports {_INTERFACE_ERC721_METADATA}, then {metaData} will be set according to the {tokenURI} method in the token contract."
      },
      "executeProposal(bytes32,bytes)": {
        "notice": "Proposal execution should be initiated when a proposal is finalized in the Bridge contract. by a relayer on the deposit's destination chain.Data passed into the function should be constructed as follows: tokenID                                     uint256    bytes    0  - 32 destinationRecipientAddress     length      uint256    bytes    32 - 64 destinationRecipientAddress                   bytes    bytes    64 - (64 + len(destinationRecipientAddress)) metadata                        length      uint256    bytes    (64 + len(destinationRecipientAddress)) - (64 + len(destinationRecipientAddress) + 32) metadata                                      bytes    bytes    (64 + len(destinationRecipientAddress) + 32) - END"
      },
      "fundERC721(address,address,uint256)": {
        "notice": "Used to transfer tokens into the safe to fund proposals."
      },
      "setBurnable(address)": {
        "notice": "First verifies {contractAddress} is whitelisted, then sets {_burnList}[{contractAddress}] to true."
      },
      "setResource(bytes32,address)": {
        "notice": "First verifies {_resourceIDToContractAddress}[{resourceID}] and {_contractAddressToResourceID}[{contractAddress}] are not already set, then sets {_resourceIDToContractAddress} with {contractAddress}, {_contractAddressToResourceID} with {resourceID}, and {_contractWhitelist} to true for {contractAddress}."
      },
      "withdraw(address,address,uint256)": {
        "notice": "Used to manually release ERC721 tokens from ERC721Safe."
      }
    },
    "notice": "This contract is intended to be used with the Bridge contract."
  }
}