{
  "contractName": "ERC721MinterBurnerPauser",
  "abi": [
    {
      "inputs": [
        {
          "internalType": "string",
          "name": "name",
          "type": "string"
        },
        {
          "internalType": "string",
          "name": "symbol",
          "type": "string"
        },
        {
          "internalType": "string",
          "name": "baseURI",
          "type": "string"
        }
      ],
      "stateMutability": "nonpayable",
      "type": "constructor"
    },
    {
      "anonymous": false,
      "inputs": [
        {
          "indexed": true,
          "internalType": "address",
          "name": "owner",
          "type": "address"
        },
        {
          "indexed": true,
          "internalType": "address",
          "name": "approved",
          "type": "address"
        },
        {
          "indexed": true,
          "internalType": "uint256",
          "name": "tokenId",
          "type": "uint256"
        }
      ],
      "name": "Approval",
      "type": "event"
    },
    {
      "anonymous": false,
      "inputs": [
        {
          "indexed": true,
          "internalType": "address",
          "name": "owner",
          "type": "address"
        },
        {
          "indexed": true,
          "internalType": "address",
          "name": "operator",
          "type": "address"
        },
        {
          "indexed": false,
          "internalType": "bool",
          "name": "approved",
          "type": "bool"
        }
      ],
      "name": "ApprovalForAll",
      "type": "event"
    },
    {
      "anonymous": false,
      "inputs": [
        {
          "indexed": false,
          "internalType": "address",
          "name": "account",
          "type": "address"
        }
      ],
      "name": "Paused",
      "type": "event"
    },
    {
      "anonymous": false,
      "inputs": [
        {
          "indexed": true,
          "internalType": "bytes32",
          "name": "role",
          "type": "bytes32"
        },
        {
          "indexed": true,
          "internalType": "address",
          "name": "account",
          "type": "address"
        },
        {
          "indexed": true,
          "internalType": "address",
          "name": "sender",
          "type": "address"
        }
      ],
      "name": "RoleGranted",
      "type": "event"
    },
    {
      "anonymous": false,
      "inputs": [
        {
          "indexed": true,
          "internalType": "bytes32",
          "name": "role",
          "type": "bytes32"
        },
        {
          "indexed": true,
          "internalType": "address",
          "name": "account",
          "type": "address"
        },
        {
          "indexed": true,
          "internalType": "address",
          "name": "sender",
          "type": "address"
        }
      ],
      "name": "RoleRevoked",
      "type": "event"
    },
    {
      "anonymous": false,
      "inputs": [
        {
          "indexed": true,
          "internalType": "address",
          "name": "from",
          "type": "address"
        },
        {
          "indexed": true,
          "internalType": "address",
          "name": "to",
          "type": "address"
        },
        {
          "indexed": true,
          "internalType": "uint256",
          "name": "tokenId",
          "type": "uint256"
        }
      ],
      "name": "Transfer",
      "type": "event"
    },
    {
      "anonymous": false,
      "inputs": [
        {
          "indexed": false,
          "internalType": "address",
          "name": "account",
          "type": "address"
        }
      ],
      "name": "Unpaused",
      "type": "event"
    },
    {
      "inputs": [],
      "name": "DEFAULT_ADMIN_ROLE",
      "outputs": [
        {
          "internalType": "bytes32",
          "name": "",
          "type": "bytes32"
        }
      ],
      "stateMutability": "view",
      "type": "function"
    },
    {
      "inputs": [],
      "name": "MINTER_ROLE",
      "outputs": [
        {
          "internalType": "bytes32",
          "name": "",
          "type": "bytes32"
        }
      ],
      "stateMutability": "view",
      "type": "function"
    },
    {
      "inputs": [],
      "name": "PAUSER_ROLE",
      "outputs": [
        {
          "internalType": "bytes32",
          "name": "",
          "type": "bytes32"
        }
      ],
      "stateMutability": "view",
      "type": "function"
    },
    {
      "inputs": [
        {
          "internalType": "address",
          "name": "to",
          "type": "address"
        },
        {
          "internalType": "uint256",
          "name": "tokenId",
          "type": "uint256"
        }
      ],
      "name": "approve",
      "outputs": [],
      "stateMutability": "nonpayable",
      "type": "function"
    },
    {
      "inputs": [
        {
          "internalType": "address",
          "name": "owner",
          "type": "address"
        }
      ],
      "name": "balanceOf",
      "outputs": [
        {
          "internalType": "uint256",
          "name": "",
          "type": "uint256"
        }
      ],
      "stateMutability": "view",
      "type": "function"
    },
    {
      "inputs": [],
      "name": "baseURI",
      "outputs": [
        {
          "internalType": "string",
          "name": "",
          "type": "string"
        }
      ],
      "stateMutability": "view",
      "type": "function"
    },
    {
      "inputs": [
        {
          "internalType": "uint256",
          "name": "tokenId",
          "type": "uint256"
        }
      ],
      "name": "burn",
      "outputs": [],
      "stateMutability": "nonpayable",
      "type": "function"
    },
    {
      "inputs": [
        {
          "internalType": "uint256",
          "name": "tokenId",
          "type": "uint256"
        }
      ],
      "name": "getApproved",
      "outputs": [
        {
          "internalType": "address",
          "name": "",
          "type": "address"
        }
      ],
      "stateMutability": "view",
      "type": "function"
    },
    {
      "inputs": [
        {
          "internalType": "bytes32",
          "name": "role",
          "type": "bytes32"
        }
      ],
      "name": "getRoleAdmin",
      "outputs": [
        {
          "internalType": "bytes32",
          "name": "",
          "type": "bytes32"
        }
      ],
      "stateMutability": "view",
      "type": "function"
    },
    {
      "inputs": [
        {
          "internalType": "bytes32",
          "name": "role",
          "type": "bytes32"
        },
        {
          "internalType": "uint256",
          "name": "index",
          "type": "uint256"
        }
      ],
      "name": "getRoleMember",
      "outputs": [
        {
          "internalType": "address",
          "name": "",
          "type": "address"
        }
      ],
      "stateMutability": "view",
      "type": "function"
    },
    {
      "inputs": [
        {
          "internalType": "bytes32",
          "name": "role",
          "type": "bytes32"
        }
      ],
      "name": "getRoleMemberCount",
      "outputs": [
        {
          "internalType": "uint256",
          "name": "",
          "type": "uint256"
        }
      ],
      "stateMutability": "view",
      "type": "function"
    },
    {
      "inputs": [
        {
          "internalType": "bytes32",
          "name": "role",
          "type": "bytes32"
        },
        {
          "internalType": "address",
          "name": "account",
          "type": "address"
        }
      ],
      "name": "grantRole",
      "outputs": [],
      "stateMutability": "nonpayable",
      "type": "function"
    },
    {
      "inputs": [
        {
          "internalType": "bytes32",
          "name": "role",
          "type": "bytes32"
        },
        {
          "internalType": "address",
          "name": "account",
          "type": "address"
        }
      ],
      "name": "hasRole",
      "outputs": [
        {
          "internalType": "bool",
          "name": "",
          "type": "bool"
        }
      ],
      "stateMutability": "view",
      "type": "function"
    },
    {
      "inputs": [
        {
          "internalType": "address",
          "name": "owner",
          "type": "address"
        },
        {
          "internalType": "address",
          "name": "operator",
          "type": "address"
        }
      ],
      "name": "isApprovedForAll",
      "outputs": [
        {
          "internalType": "bool",
          "name": "",
          "type": "bool"
        }
      ],
      "stateMutability": "view",
      "type": "function"
    },
    {
      "inputs": [],
      "name": "name",
      "outputs": [
        {
          "internalType": "string",
          "name": "",
          "type": "string"
        }
      ],
      "stateMutability": "view",
      "type": "function"
    },
    {
      "inputs": [
        {
          "internalType": "uint256",
          "name": "tokenId",
          "type": "uint256"
        }
      ],
      "name": "ownerOf",
      "outputs": [
        {
          "internalType": "address",
          "name": "",
          "type": "address"
        }
      ],
      "stateMutability": "view",
      "type": "function"
    },
    {
      "inputs": [],
      "name": "paused",
      "outputs": [
        {
          "internalType": "bool",
          "name": "",
          "type": "bool"
        }
      ],
      "stateMutability": "view",
      "type": "function"
    },
    {
      "inputs": [
        {
          "internalType": "bytes32",
          "name": "role",
          "type": "bytes32"
        },
        {
          "internalType": "address",
          "name": "account",
          "type": "address"
        }
      ],
      "name": "renounceRole",
      "outputs": [],
      "stateMutability": "nonpayable",
      "type": "function"
    },
    {
      "inputs": [
        {
          "internalType": "bytes32",
          "name": "role",
          "type": "bytes32"
        },
        {
          "internalType": "address",
          "name": "account",
          "type": "address"
        }
      ],
      "name": "revokeRole",
      "outputs": [],
      "stateMutability": "nonpayable",
      "type": "function"
    },
    {
      "inputs": [
        {
          "internalType": "address",
          "name": "from",
          "type": "address"
        },
        {
          "internalType": "address",
          "name": "to",
          "type": "address"
        },
        {
          "internalType": "uint256",
          "name": "tokenId",
          "type": "uint256"
        }
      ],
      "name": "safeTransferFrom",
      "outputs": [],
      "stateMutability": "nonpayable",
      "type": "function"
    },
    {
      "inputs": [
        {
          "internalType": "address",
          "name": "from",
          "type": "address"
        },
        {
          "internalType": "address",
          "name": "to",
          "type": "address"
        },
        {
          "internalType": "uint256",
          "name": "tokenId",
          "type": "uint256"
        },
        {
          "internalType": "bytes",
          "name": "_data",
          "type": "bytes"
        }
      ],
      "name": "safeTransferFrom",
      "outputs": [],
      "stateMutability": "nonpayable",
      "type": "function"
    },
    {
      "inputs": [
        {
          "internalType": "address",
          "name": "operator",
          "type": "address"
        },
        {
          "internalType": "bool",
          "name": "approved",
          "type": "bool"
        }
      ],
      "name": "setApprovalForAll",
      "outputs": [],
      "stateMutability": "nonpayable",
      "type": "function"
    },
    {
      "inputs": [
        {
          "internalType": "bytes4",
          "name": "interfaceId",
          "type": "bytes4"
        }
      ],
      "name": "supportsInterface",
      "outputs": [
        {
          "internalType": "bool",
          "name": "",
          "type": "bool"
        }
      ],
      "stateMutability": "view",
      "type": "function"
    },
    {
      "inputs": [],
      "name": "symbol",
      "outputs": [
        {
          "internalType": "string",
          "name": "",
          "type": "string"
        }
      ],
      "stateMutability": "view",
      "type": "function"
    },
    {
      "inputs": [
        {
          "internalType": "uint256",
          "name": "index",
          "type": "uint256"
        }
      ],
      "name": "tokenByIndex",
      "outputs": [
        {
          "internalType": "uint256",
          "name": "",
          "type": "uint256"
        }
      ],
      "stateMutability": "view",
      "type": "function"
    },
    {
      "inputs": [
        {
          "internalType": "address",
          "name": "owner",
          "type": "address"
        },
        {
          "internalType": "uint256",
          "name": "index",
          "type": "uint256"
        }
      ],
      "name": "tokenOfOwnerByIndex",
      "outputs": [
        {
          "internalType": "uint256",
          "name": "",
          "type": "uint256"
        }
      ],
      "stateMutability": "view",
      "type": "function"
    },
    {
      "inputs": [
        {
          "internalType": "uint256",
          "name": "tokenId",
          "type": "uint256"
        }
      ],
      "name": "tokenURI",
      "outputs": [
        {
          "internalType": "string",
          "name": "",
          "type": "string"
        }
      ],
      "stateMutability": "view",
      "type": "function"
    },
    {
      "inputs": [],
      "name": "totalSupply",
      "outputs": [
        {
          "internalType": "uint256",
          "name": "",
          "type": "uint256"
        }
      ],
      "stateMutability": "view",
      "type": "function"
    },
    {
      "inputs": [
        {
          "internalType": "address",
          "name": "from",
          "type": "address"
        },
        {
          "internalType": "address",
          "name": "to",
          "type": "address"
        },
        {
          "internalType": "uint256",
          "name": "tokenId",
          "type": "uint256"
        }
      ],
      "name": "transferFrom",
      "outputs": [],
      "stateMutability": "nonpayable",
      "type": "function"
    },
    {
      "inputs": [
        {
          "internalType": "address",
          "name": "to",
          "type": "address"
        },
        {
          "internalType": "uint256",
          "name": "tokenId",
          "type": "uint256"
        },
        {
          "internalType": "string",
          "name": "_data",
          "type": "string"
        }
      ],
      "name": "mint",
      "outputs": [],
      "stateMutability": "nonpayable",
      "type": "function"
    },
    {
      "inputs": [],
      "name": "pause",
      "outputs": [],
      "stateMutability": "nonpayable",
      "type": "function"
    },
    {
      "inputs": [],
      "name": "unpause",
      "outputs": [],
      "stateMutability": "nonpayable",
      "type": "function"
    }
  ],
  "bytecode": "0x60806040523480156200001157600080fd5b5060405162002f5c38038062002f5c833981810160405260608110156200003757600080fd5b81019080805160405193929190846401000000008211156200005857600080fd5b9083019060208201858111156200006e57600080fd5b82516401000000008111828201881017156200008957600080fd5b82525081516020918201929091019080838360005b83811015620000b85781810151838201526020016200009e565b50505050905090810190601f168015620000e65780820380516001836020036101000a031916815260200191505b50604052602001805160405193929190846401000000008211156200010a57600080fd5b9083019060208201858111156200012057600080fd5b82516401000000008111828201881017156200013b57600080fd5b82525081516020918201929091019080838360005b838110156200016a57818101518382015260200162000150565b50505050905090810190601f168015620001985780820380516001836020036101000a031916815260200191505b5060405260200180516040519392919084640100000000821115620001bc57600080fd5b908301906020820185811115620001d257600080fd5b8251640100000000811182820188101715620001ed57600080fd5b82525081516020918201929091019080838360005b838110156200021c57818101518382015260200162000202565b50505050905090810190601f1680156200024a5780820380516001836020036101000a031916815260200191505b5060405250849150839050620002897f01ffc9a7000000000000000000000000000000000000000000000000000000006001600160e01b036200043616565b81516200029e90600790602085019062000656565b508051620002b490600890602084019062000656565b50620002e97f80ac58cd000000000000000000000000000000000000000000000000000000006001600160e01b036200043616565b6200031d7f5b5e139f000000000000000000000000000000000000000000000000000000006001600160e01b036200043616565b620003517f780e9d63000000000000000000000000000000000000000000000000000000006001600160e01b036200043616565b5050600b805460ff19169055620003856000620003766001600160e01b036200050816565b6001600160e01b036200050d16565b604080517f4d494e5445525f524f4c450000000000000000000000000000000000000000008152905190819003600b019020620003cf90620003766001600160e01b036200050816565b604080517f5041555345525f524f4c450000000000000000000000000000000000000000008152905190819003600b0190206200041990620003766001600160e01b036200050816565b6200042d816001600160e01b036200052616565b505050620006f8565b7fffffffff000000000000000000000000000000000000000000000000000000008082161415620004c857604080517f08c379a000000000000000000000000000000000000000000000000000000000815260206004820152601c60248201527f4552433136353a20696e76616c696420696e7465726661636520696400000000604482015290519081900360640190fd5b7fffffffff00000000000000000000000000000000000000000000000000000000166000908152600160208190526040909120805460ff19169091179055565b335b90565b6200052282826001600160e01b036200053b16565b5050565b80516200052290600a90602084019062000656565b6000828152602081815260409091206200056091839062001c28620005bd821b17901c565b156200052257620005796001600160e01b036200050816565b6001600160a01b0316816001600160a01b0316837f2f8788117e7eff1d82e926ec794901d17c78024a50270940304540a733656f0d60405160405180910390a45050565b6000620005dd836001600160a01b0384166001600160e01b03620005e616565b90505b92915050565b6000620005fd83836001600160e01b036200063e16565b6200063557508154600181810184556000848152602080822090930184905584548482528286019093526040902091909155620005e0565b506000620005e0565b60009081526001919091016020526040902054151590565b828054600181600116156101000203166002900490600052602060002090601f016020900481019282601f106200069957805160ff1916838001178555620006c9565b82800160010185558215620006c9579182015b82811115620006c9578251825591602001919060010190620006ac565b50620006d7929150620006db565b5090565b6200050a91905b80821115620006d75760008155600101620006e2565b61285480620007086000396000f3fe608060405234801561001057600080fd5b50600436106101f05760003560e01c80636c0360eb1161010f578063b88d4fde116100a2578063d539139311610071578063d539139314610720578063d547741f14610728578063e63ab1e914610754578063e985e9c51461075c576101f0565b8063b88d4fde14610565578063c87b56dd1461062b578063ca15c87314610648578063d3fc986414610665576101f0565b806391d14854116100de57806391d14854146104fb57806395d89b4114610527578063a217fddf1461052f578063a22cb46514610537576101f0565b80636c0360eb146104a257806370a08231146104aa5780638456cb59146104d05780639010d07c146104d8576101f0565b80632f745c591161018757806342966c681161015657806342966c68146104435780634f6ccce7146104605780635c975abb1461047d5780636352211e14610485576101f0565b80632f745c59146103ad57806336568abe146103d95780633f4ba83a1461040557806342842e0e1461040d576101f0565b806318160ddd116101c357806318160ddd1461031457806323b872dd1461032e578063248a9ca3146103645780632f2ff15d14610381576101f0565b806301ffc9a7146101f557806306fdde0314610230578063081812fc146102ad578063095ea7b3146102e6575b600080fd5b61021c6004803603602081101561020b57600080fd5b50356001600160e01b03191661078a565b604080519115158252519081900360200190f35b6102386107ad565b6040805160208082528351818301528351919283929083019185019080838360005b8381101561027257818101518382015260200161025a565b50505050905090810190601f16801561029f5780820380516001836020036101000a031916815260200191505b509250505060405180910390f35b6102ca600480360360208110156102c357600080fd5b5035610844565b604080516001600160a01b039092168252519081900360200190f35b610312600480360360408110156102fc57600080fd5b506001600160a01b0381351690602001356108a6565b005b61031c610981565b60408051918252519081900360200190f35b6103126004803603606081101561034457600080fd5b506001600160a01b03813581169160208101359091169060400135610992565b61031c6004803603602081101561037a57600080fd5b50356109e9565b6103126004803603604081101561039757600080fd5b50803590602001356001600160a01b03166109fe565b61031c600480360360408110156103c357600080fd5b506001600160a01b038135169060200135610a6a565b610312600480360360408110156103ef57600080fd5b50803590602001356001600160a01b0316610a9b565b610312610afc565b6103126004803603606081101561042357600080fd5b506001600160a01b03813581169160208101359091169060400135610b6d565b6103126004803603602081101561045957600080fd5b5035610b88565b61031c6004803603602081101561047657600080fd5b5035610bda565b61021c610bf6565b6102ca6004803603602081101561049b57600080fd5b5035610bff565b610238610c2d565b61031c600480360360208110156104c057600080fd5b50356001600160a01b0316610c8e565b610312610cf6565b6102ca600480360360408110156104ee57600080fd5b5080359060200135610d65565b61021c6004803603604081101561051157600080fd5b50803590602001356001600160a01b0316610d83565b610238610da1565b61031c610e02565b6103126004803603604081101561054d57600080fd5b506001600160a01b0381351690602001351515610e07565b6103126004803603608081101561057b57600080fd5b6001600160a01b038235811692602081013590911691604082013591908101906080810160608201356401000000008111156105b657600080fd5b8201836020820111156105c857600080fd5b803590602001918460018302840111640100000000831117156105ea57600080fd5b91908080601f016020809104026020016040519081016040528093929190818152602001838380828437600092019190915250929550610f0c945050505050565b6102386004803603602081101561064157600080fd5b5035610f6a565b61031c6004803603602081101561065e57600080fd5b5035611211565b6103126004803603606081101561067b57600080fd5b6001600160a01b03823516916020810135918101906060810160408201356401000000008111156106ab57600080fd5b8201836020820111156106bd57600080fd5b803590602001918460018302840111640100000000831117156106df57600080fd5b91908080601f016020809104026020016040519081016040528093929190818152602001838380828437600092019190915250929550611228945050505050565b61031c6112a3565b6103126004803603604081101561073e57600080fd5b50803590602001356001600160a01b03166112c6565b61031c61131f565b61021c6004803603604081101561077257600080fd5b506001600160a01b0381358116916020013516611342565b6001600160e01b0319811660009081526001602052604090205460ff165b919050565b60078054604080516020601f60026000196101006001881615020190951694909404938401819004810282018101909252828152606093909290918301828280156108395780601f1061080e57610100808354040283529160200191610839565b820191906000526020600020905b81548152906001019060200180831161081c57829003601f168201915b505050505090505b90565b600061084f82611370565b61088a5760405162461bcd60e51b815260040180806020018281038252602c815260200180612687602c913960400191505060405180910390fd5b506000908152600560205260409020546001600160a01b031690565b60006108b182610bff565b9050806001600160a01b0316836001600160a01b031614156109045760405162461bcd60e51b81526004018080602001828103825260218152602001806127376021913960400191505060405180910390fd5b806001600160a01b0316610916611383565b6001600160a01b03161480610937575061093781610932611383565b611342565b6109725760405162461bcd60e51b81526004018080602001828103825260388152602001806125da6038913960400191505060405180910390fd5b61097c8383611387565b505050565b600061098d60036113f5565b905090565b6109a361099d611383565b82611400565b6109de5760405162461bcd60e51b81526004018080602001828103825260318152602001806127586031913960400191505060405180910390fd5b61097c8383836114a4565b60009081526020819052604090206002015490565b600082815260208190526040902060020154610a2190610a1c611383565b610d83565b610a5c5760405162461bcd60e51b815260040180806020018281038252602f815260200180612487602f913960400191505060405180910390fd5b610a668282611602565b5050565b6001600160a01b0382166000908152600260205260408120610a92908363ffffffff61167116565b90505b92915050565b610aa3611383565b6001600160a01b0316816001600160a01b031614610af25760405162461bcd60e51b815260040180806020018281038252602f8152602001806127b9602f913960400191505060405180910390fd5b610a66828261167d565b604080516a5041555345525f524f4c4560a81b8152905190819003600b019020610b2890610a1c611383565b610b635760405162461bcd60e51b815260040180806020018281038252603a815260200180612570603a913960400191505060405180910390fd5b610b6b6116ec565b565b61097c83838360405180602001604052806000815250610f0c565b610b9361099d611383565b610bce5760405162461bcd60e51b81526004018080602001828103825260308152602001806127896030913960400191505060405180910390fd5b610bd78161178a565b50565b600080610bee60038463ffffffff61186316565b509392505050565b600b5460ff1690565b6000610a958260405180606001604052806029815260200161263c602991396003919063ffffffff61187f16565b600a8054604080516020601f60026000196101006001881615020190951694909404938401819004810282018101909252828152606093909290918301828280156108395780601f1061080e57610100808354040283529160200191610839565b60006001600160a01b038216610cd55760405162461bcd60e51b815260040180806020018281038252602a815260200180612612602a913960400191505060405180910390fd5b6001600160a01b0382166000908152600260205260409020610a95906113f5565b604080516a5041555345525f524f4c4560a81b8152905190819003600b019020610d2290610a1c611383565b610d5d5760405162461bcd60e51b81526004018080602001828103825260388152602001806125386038913960400191505060405180910390fd5b610b6b611896565b6000828152602081905260408120610a92908363ffffffff61167116565b6000828152602081905260408120610a92908363ffffffff61191716565b60088054604080516020601f60026000196101006001881615020190951694909404938401819004810282018101909252828152606093909290918301828280156108395780601f1061080e57610100808354040283529160200191610839565b600081565b610e0f611383565b6001600160a01b0316826001600160a01b03161415610e75576040805162461bcd60e51b815260206004820152601960248201527f4552433732313a20617070726f766520746f2063616c6c657200000000000000604482015290519081900360640190fd5b8060066000610e82611383565b6001600160a01b03908116825260208083019390935260409182016000908120918716808252919093529120805460ff191692151592909217909155610ec6611383565b60408051841515815290516001600160a01b0392909216917f17307eab39ab6107e8899845ad3d59bd9653f200f220920489ca2b5937696c319181900360200190a35050565b610f1d610f17611383565b83611400565b610f585760405162461bcd60e51b81526004018080602001828103825260318152602001806127586031913960400191505060405180910390fd5b610f648484848461192c565b50505050565b6060610f7582611370565b610fb05760405162461bcd60e51b815260040180806020018281038252602f815260200180612708602f913960400191505060405180910390fd5b60008281526009602090815260409182902080548351601f60026000196101006001861615020190931692909204918201849004840281018401909452808452606093928301828280156110455780601f1061101a57610100808354040283529160200191611045565b820191906000526020600020905b81548152906001019060200180831161102857829003601f168201915b5050600a549394505050506002600019610100600184161502019091160461106e5790506107a8565b80511561113f57600a8160405160200180838054600181600116156101000203166002900480156110d65780601f106110b45761010080835404028352918201916110d6565b820191906000526020600020905b8154815290600101906020018083116110c2575b5050825160208401908083835b602083106111025780518252601f1990920191602091820191016110e3565b6001836020036101000a038019825116818451168082178552505050505050905001925050506040516020818303038152906040529150506107a8565b600a61114a8461197e565b60405160200180838054600181600116156101000203166002900480156111a85780601f106111865761010080835404028352918201916111a8565b820191906000526020600020905b815481529060010190602001808311611194575b5050825160208401908083835b602083106111d45780518252601f1990920191602091820191016111b5565b6001836020036101000a03801982511681845116808217855250505050505090500192505050604051602081830303815290604052915050919050565b6000818152602081905260408120610a95906113f5565b604080516a4d494e5445525f524f4c4560a81b8152905190819003600b01902061125490610a1c611383565b61128f5760405162461bcd60e51b81526004018080602001828103825260378152602001806127e86037913960400191505060405180910390fd5b6112998383611a42565b61097c8282611b7c565b604080516a4d494e5445525f524f4c4560a81b8152905190819003600b01902081565b6000828152602081905260409020600201546112e490610a1c611383565b610af25760405162461bcd60e51b81526004018080602001828103825260308152602001806125aa6030913960400191505060405180910390fd5b604080516a5041555345525f524f4c4560a81b8152905190819003600b01902081565b6001600160a01b03918216600090815260066020908152604080832093909416825291909152205460ff1690565b6000610a9560038363ffffffff611bdf16565b3390565b600081815260056020526040902080546001600160a01b0319166001600160a01b03841690811790915581906113bc82610bff565b6001600160a01b03167f8c5be1e5ebec7d5bd14f71427d1e84f3dd0314c0f7b2291e5b200ac8c7c3b92560405160405180910390a45050565b6000610a9582611beb565b600061140b82611370565b6114465760405162461bcd60e51b815260040180806020018281038252602c81526020018061250c602c913960400191505060405180910390fd5b600061145183610bff565b9050806001600160a01b0316846001600160a01b0316148061148c5750836001600160a01b031661148184610844565b6001600160a01b0316145b8061149c575061149c8185611342565b949350505050565b826001600160a01b03166114b782610bff565b6001600160a01b0316146114fc5760405162461bcd60e51b81526004018080602001828103825260298152602001806126df6029913960400191505060405180910390fd5b6001600160a01b0382166115415760405162461bcd60e51b81526004018080602001828103825260248152602001806124e86024913960400191505060405180910390fd5b61154c838383611bef565b611557600082611387565b6001600160a01b038316600090815260026020526040902061157f908263ffffffff611bfa16565b506001600160a01b03821660009081526002602052604090206115a8908263ffffffff611c0616565b506115bb6003828463ffffffff611c1216565b5080826001600160a01b0316846001600160a01b03167fddf252ad1be2c89b69c2b068fc378daa952ba7f163c4a11628f55a4df523b3ef60405160405180910390a4505050565b6000828152602081905260409020611620908263ffffffff611c2816565b15610a665761162d611383565b6001600160a01b0316816001600160a01b0316837f2f8788117e7eff1d82e926ec794901d17c78024a50270940304540a733656f0d60405160405180910390a45050565b6000610a928383611c3d565b600082815260208190526040902061169b908263ffffffff611ca116565b15610a66576116a8611383565b6001600160a01b0316816001600160a01b0316837ff6391f5c32d9c69d2a47ea670b442974b53935d1edc7fd64eb21e047a839171b60405160405180910390a45050565b600b5460ff1661173a576040805162461bcd60e51b815260206004820152601460248201527314185d5cd8589b194e881b9bdd081c185d5cd95960621b604482015290519081900360640190fd5b600b805460ff191690557f5db9ee0a495bf2e6ff9c91a7834c1ba4fdd244a5e8aa4e537bd38aeae4b073aa61176d611383565b604080516001600160a01b039092168252519081900360200190a1565b600061179582610bff565b90506117a381600084611bef565b6117ae600083611387565b60008281526009602052604090205460026000196101006001841615020190911604156117ec5760008281526009602052604081206117ec9161235d565b6001600160a01b0381166000908152600260205260409020611814908363ffffffff611bfa16565b5061182660038363ffffffff611cb616565b5060405182906000906001600160a01b038416907fddf252ad1be2c89b69c2b068fc378daa952ba7f163c4a11628f55a4df523b3ef908390a45050565b60008080806118728686611cc2565b9097909650945050505050565b600061188c848484611d3d565b90505b9392505050565b600b5460ff16156118e1576040805162461bcd60e51b815260206004820152601060248201526f14185d5cd8589b194e881c185d5cd95960821b604482015290519081900360640190fd5b600b805460ff191660011790557f62e78cea01bee320cd4e420270b5ea74000d11b0c9f74754ebdbfc544b05a25861176d611383565b6000610a92836001600160a01b038416611e07565b6119378484846114a4565b61194384848484611e1f565b610f645760405162461bcd60e51b81526004018080602001828103825260328152602001806124b66032913960400191505060405180910390fd5b6060816119a357506040805180820190915260018152600360fc1b60208201526107a8565b8160005b81156119bb57600101600a820491506119a7565b6060816040519080825280601f01601f1916602001820160405280156119e8576020820181803683370190505b50859350905060001982015b8315611a3957600a840660300160f81b82828060019003935081518110611a1757fe5b60200101906001600160f81b031916908160001a905350600a840493506119f4565b50949350505050565b6001600160a01b038216611a9d576040805162461bcd60e51b815260206004820181905260248201527f4552433732313a206d696e7420746f20746865207a65726f2061646472657373604482015290519081900360640190fd5b611aa681611370565b15611af8576040805162461bcd60e51b815260206004820152601c60248201527f4552433732313a20746f6b656e20616c7265616479206d696e74656400000000604482015290519081900360640190fd5b611b0460008383611bef565b6001600160a01b0382166000908152600260205260409020611b2c908263ffffffff611c0616565b50611b3f6003828463ffffffff611c1216565b5060405181906001600160a01b038416906000907fddf252ad1be2c89b69c2b068fc378daa952ba7f163c4a11628f55a4df523b3ef908290a45050565b611b8582611370565b611bc05760405162461bcd60e51b815260040180806020018281038252602c8152602001806126b3602c913960400191505060405180910390fd5b6000828152600960209081526040909120825161097c928401906123a1565b6000610a928383611e07565b5490565b61097c83838361205a565b6000610a9283836120a9565b6000610a92838361216f565b600061188c84846001600160a01b0385166121b9565b6000610a92836001600160a01b03841661216f565b81546000908210611c7f5760405162461bcd60e51b815260040180806020018281038252602281526020018061243a6022913960400191505060405180910390fd5b826000018281548110611c8e57fe5b9060005260206000200154905092915050565b6000610a92836001600160a01b0384166120a9565b6000610a928383612250565b815460009081908310611d065760405162461bcd60e51b81526004018080602001828103825260228152602001806126656022913960400191505060405180910390fd5b6000846000018481548110611d1757fe5b906000526020600020906002020190508060000154816001015492509250509250929050565b60008281526001840160205260408120548281611dd85760405162461bcd60e51b81526004018080602001828103825283818151815260200191508051906020019080838360005b83811015611d9d578181015183820152602001611d85565b50505050905090810190601f168015611dca5780820380516001836020036101000a031916815260200191505b509250505060405180910390fd5b50846000016001820381548110611deb57fe5b9060005260206000209060020201600101549150509392505050565b60009081526001919091016020526040902054151590565b6000611e33846001600160a01b0316612324565b611e3f5750600161149c565b600060606001600160a01b038616630a85bd0160e11b611e5d611383565b89888860405160240180856001600160a01b03166001600160a01b03168152602001846001600160a01b03166001600160a01b0316815260200183815260200180602001828103825283818151815260200191508051906020019080838360005b83811015611ed6578181015183820152602001611ebe565b50505050905090810190601f168015611f035780820380516001836020036101000a031916815260200191505b5060408051601f198184030181529181526020820180516001600160e01b03166001600160e01b0319909a16999099178952518151919890975087965094509250829150849050835b60208310611f6b5780518252601f199092019160209182019101611f4c565b6001836020036101000a0380198251168184511680821785525050505050509050019150506000604051808303816000865af19150503d8060008114611fcd576040519150601f19603f3d011682016040523d82523d6000602084013e611fd2565b606091505b50915091508161202357805115611fec5780518082602001fd5b60405162461bcd60e51b81526004018080602001828103825260328152602001806124b66032913960400191505060405180910390fd5b600081806020019051602081101561203a57600080fd5b50516001600160e01b031916630a85bd0160e11b14935061149c92505050565b61206583838361097c565b61206d610bf6565b1561097c5760405162461bcd60e51b815260040180806020018281038252602b81526020018061245c602b913960400191505060405180910390fd5b6000818152600183016020526040812054801561216557835460001980830191908101906000908790839081106120dc57fe5b90600052602060002001549050808760000184815481106120f957fe5b60009182526020808320909101929092558281526001898101909252604090209084019055865487908061212957fe5b60019003818190600052602060002001600090559055866001016000878152602001908152602001600020600090556001945050505050610a95565b6000915050610a95565b600061217b8383611e07565b6121b157508154600181810184556000848152602080822090930184905584548482528286019093526040902091909155610a95565b506000610a95565b60008281526001840160205260408120548061221e57505060408051808201825283815260208082018481528654600181810189556000898152848120955160029093029095019182559151908201558654868452818801909252929091205561188f565b8285600001600183038154811061223157fe5b906000526020600020906002020160010181905550600091505061188f565b60008181526001830160205260408120548015612165578354600019808301919081019060009087908390811061228357fe5b90600052602060002090600202019050808760000184815481106122a357fe5b6000918252602080832084546002909302019182556001938401549184019190915583548252898301905260409020908401905586548790806122e257fe5b6000828152602080822060026000199094019384020182815560019081018390559290935588815289820190925260408220919091559450610a959350505050565b6000813f7fc5d2460186f7233c927e7db2dcc703c0e500b653ca82273b7bfad8045d85a47081811480159061149c575050151592915050565b50805460018160011615610100020316600290046000825580601f106123835750610bd7565b601f016020900490600052602060002090810190610bd7919061241f565b828054600181600116156101000203166002900490600052602060002090601f016020900481019282601f106123e257805160ff191683800117855561240f565b8280016001018555821561240f579182015b8281111561240f5782518255916020019190600101906123f4565b5061241b92915061241f565b5090565b61084191905b8082111561241b576000815560010161242556fe456e756d657261626c655365743a20696e646578206f7574206f6620626f756e64734552433732315061757361626c653a20746f6b656e207472616e73666572207768696c6520706175736564416363657373436f6e74726f6c3a2073656e646572206d75737420626520616e2061646d696e20746f206772616e744552433732313a207472616e7366657220746f206e6f6e20455243373231526563656976657220696d706c656d656e7465724552433732313a207472616e7366657220746f20746865207a65726f20616464726573734552433732313a206f70657261746f7220717565727920666f72206e6f6e6578697374656e7420746f6b656e4552433732314d696e7465724275726e65725061757365723a206d75737420686176652070617573657220726f6c6520746f2070617573654552433732314d696e7465724275726e65725061757365723a206d75737420686176652070617573657220726f6c6520746f20756e7061757365416363657373436f6e74726f6c3a2073656e646572206d75737420626520616e2061646d696e20746f207265766f6b654552433732313a20617070726f76652063616c6c6572206973206e6f74206f776e6572206e6f7220617070726f76656420666f7220616c6c4552433732313a2062616c616e636520717565727920666f7220746865207a65726f20616464726573734552433732313a206f776e657220717565727920666f72206e6f6e6578697374656e7420746f6b656e456e756d657261626c654d61703a20696e646578206f7574206f6620626f756e64734552433732313a20617070726f76656420717565727920666f72206e6f6e6578697374656e7420746f6b656e4552433732314d657461646174613a2055524920736574206f66206e6f6e6578697374656e7420746f6b656e4552433732313a207472616e73666572206f6620746f6b656e2074686174206973206e6f74206f776e4552433732314d657461646174613a2055524920717565727920666f72206e6f6e6578697374656e7420746f6b656e4552433732313a20617070726f76616c20746f2063757272656e74206f776e65724552433732313a207472616e736665722063616c6c6572206973206e6f74206f776e6572206e6f7220617070726f7665644552433732314275726e61626c653a2063616c6c6572206973206e6f74206f776e6572206e6f7220617070726f766564416363657373436f6e74726f6c3a2063616e206f6e6c792072656e6f756e636520726f6c657320666f722073656c664552433732314d696e7465724275726e65725061757365723a206d7573742068617665206d696e74657220726f6c6520746f206d696e74a2646970667358221220aaa709726687765e43c01f734c5ad35ca22ab5257bb9a6075ebc60d2f65e283e64736f6c63430006040033",
  "source": "pragma solidity ^0.6.0;\n\n// This is adapted from https://github.com/OpenZeppelin/openzeppelin-contracts/blob/v3.0.0/contracts/presets/ERC721PresetMinterPauserAutoId.sol\n\nimport \"@openzeppelin/contracts/access/AccessControl.sol\";\nimport \"@openzeppelin/contracts/GSN/Context.sol\";\nimport \"@openzeppelin/contracts/utils/Counters.sol\";\nimport \"@openzeppelin/contracts/token/ERC721/ERC721.sol\";\nimport \"@openzeppelin/contracts/token/ERC721/ERC721Burnable.sol\";\nimport \"@openzeppelin/contracts/token/ERC721/ERC721Pausable.sol\";\n\n\ncontract ERC721MinterBurnerPauser is Context, AccessControl, ERC721Burnable, ERC721Pausable {\n    bytes32 public constant MINTER_ROLE = keccak256(\"MINTER_ROLE\");\n    bytes32 public constant PAUSER_ROLE = keccak256(\"PAUSER_ROLE\");\n\n    /**\n     * @dev Grants `DEFAULT_ADMIN_ROLE` and `MINTER_ROLE`to the account that\n     * deploys the contract.\n     *\n     * Token URIs will be autogenerated based on `baseURI` and their token IDs.\n     * See {ERC721-tokenURI}.\n     */\n    constructor(string memory name, string memory symbol, string memory baseURI) public ERC721(name, symbol) {\n        _setupRole(DEFAULT_ADMIN_ROLE, _msgSender());\n\n        _setupRole(MINTER_ROLE, _msgSender());\n        _setupRole(PAUSER_ROLE, _msgSender());\n\n        _setBaseURI(baseURI);\n    }\n\n    /**\n     * @dev Creates a new token for `to`. Its token ID will be automatically\n     * assigned (and available on the emitted {Transfer} event), and the token\n     * URI autogenerated based on the base URI passed at construction.\n     *\n     * See {ERC721-_mint}.\n     *\n     * Requirements:\n     *\n     * - the caller must have the `MINTER_ROLE`.\n     */\n    function mint(address to, uint256 tokenId, string memory _data) public {\n        require(hasRole(MINTER_ROLE, _msgSender()), \"ERC721MinterBurnerPauser: must have minter role to mint\");\n\n        _mint(to, tokenId);\n        _setTokenURI(tokenId, _data);\n    }\n\n    /**\n     * @dev Pauses all token transfers.\n     *\n     * See {ERC721Pausable} and {Pausable-_pause}.\n     *\n     * Requirements:\n     *\n     * - the caller must have the `PAUSER_ROLE`.\n     */\n    function pause() public {\n        require(hasRole(PAUSER_ROLE, _msgSender()), \"ERC721MinterBurnerPauser: must have pauser role to pause\");\n        _pause();\n    }\n\n    /**\n     * @dev Unpauses all token transfers.\n     *\n     * See {ERC721Pausable} and {Pausable-_unpause}.\n     *\n     * Requirements:\n     *\n     * - the caller must have the `PAUSER_ROLE`.\n     */\n    function unpause() public {\n        require(hasRole(PAUSER_ROLE, _msgSender()), \"ERC721MinterBurnerPauser: must have pauser role to unpause\");\n        _unpause();\n    }\n\n    function _beforeTokenTransfer(address from, address to, uint256 tokenId) internal override(ERC721, ERC721Pausable) {\n        super._beforeTokenTransfer(from, to, tokenId);\n    }\n}\n",
  "sourcePath": "/home/yang/trees/chainbridge-solidity-v1.0.0-eth/contracts/ERC721MinterBurnerPauser.sol",
  "compiler": {
    "name": "solc",
    "version": "0.6.4+commit.1dca32f3.Emscripten.clang"
  },
  "schemaVersion": "3.1.0",
  "updatedAt": "2021-04-15T03:29:15.035Z",
  "devdoc": {
    "methods": {
      "approve(address,uint256)": {
        "details": "Approves another address to transfer the given token ID The zero address indicates there is no approved address. There can only be one approved address per token at a given time. Can only be called by the token owner or an approved operator.",
        "params": {
          "to": "address to be approved for the given token ID",
          "tokenId": "uint256 ID of the token to be approved"
        }
      },
      "balanceOf(address)": {
        "details": "Gets the balance of the specified address.",
        "params": {
          "owner": "address to query the balance of"
        },
        "returns": {
          "_0": "uint256 representing the amount owned by the passed address"
        }
      },
      "baseURI()": {
        "details": "Returns the base URI set via {_setBaseURI}. This will be automatically added as a prefix in {tokenURI} to each token's URI, or to the token ID if no specific URI is set for that token ID."
      },
      "burn(uint256)": {
        "details": "Burns a specific ERC721 token.",
        "params": {
          "tokenId": "uint256 id of the ERC721 token to be burned."
        }
      },
      "constructor": {
        "details": "Grants `DEFAULT_ADMIN_ROLE` and `MINTER_ROLE`to the account that deploys the contract.     * Token URIs will be autogenerated based on `baseURI` and their token IDs. See {ERC721-tokenURI}."
      },
      "getApproved(uint256)": {
        "details": "Gets the approved address for a token ID, or zero if no address set Reverts if the token ID does not exist.",
        "params": {
          "tokenId": "uint256 ID of the token to query the approval of"
        },
        "returns": {
          "_0": "address currently approved for the given token ID"
        }
      },
      "getRoleAdmin(bytes32)": {
        "details": "Returns the admin role that controls `role`. See {grantRole} and {revokeRole}.     * To change a role's admin, use {_setRoleAdmin}."
      },
      "getRoleMember(bytes32,uint256)": {
        "details": "Returns one of the accounts that have `role`. `index` must be a value between 0 and {getRoleMemberCount}, non-inclusive.     * Role bearers are not sorted in any particular way, and their ordering may change at any point.     * WARNING: When using {getRoleMember} and {getRoleMemberCount}, make sure you perform all queries on the same block. See the following https://forum.openzeppelin.com/t/iterating-over-elements-on-enumerableset-in-openzeppelin-contracts/2296[forum post] for more information."
      },
      "getRoleMemberCount(bytes32)": {
        "details": "Returns the number of accounts that have `role`. Can be used together with {getRoleMember} to enumerate all bearers of a role."
      },
      "grantRole(bytes32,address)": {
        "details": "Grants `role` to `account`.     * If `account` had not been already granted `role`, emits a {RoleGranted} event.     * Requirements:     * - the caller must have ``role``'s admin role."
      },
      "hasRole(bytes32,address)": {
        "details": "Returns `true` if `account` has been granted `role`."
      },
      "isApprovedForAll(address,address)": {
        "details": "Tells whether an operator is approved by a given owner.",
        "params": {
          "operator": "operator address which you want to query the approval of",
          "owner": "owner address which you want to query the approval of"
        },
        "returns": {
          "_0": "bool whether the given operator is approved by the given owner"
        }
      },
      "mint(address,uint256,string)": {
        "details": "Creates a new token for `to`. Its token ID will be automatically assigned (and available on the emitted {Transfer} event), and the token URI autogenerated based on the base URI passed at construction.     * See {ERC721-_mint}.     * Requirements:     * - the caller must have the `MINTER_ROLE`."
      },
      "name()": {
        "details": "Gets the token name.",
        "returns": {
          "_0": "string representing the token name"
        }
      },
      "ownerOf(uint256)": {
        "details": "Gets the owner of the specified token ID.",
        "params": {
          "tokenId": "uint256 ID of the token to query the owner of"
        },
        "returns": {
          "_0": "address currently marked as the owner of the given token ID"
        }
      },
      "pause()": {
        "details": "Pauses all token transfers.     * See {ERC721Pausable} and {Pausable-_pause}.     * Requirements:     * - the caller must have the `PAUSER_ROLE`."
      },
      "paused()": {
        "details": "Returns true if the contract is paused, and false otherwise."
      },
      "renounceRole(bytes32,address)": {
        "details": "Revokes `role` from the calling account.     * Roles are often managed via {grantRole} and {revokeRole}: this function's purpose is to provide a mechanism for accounts to lose their privileges if they are compromised (such as when a trusted device is misplaced).     * If the calling account had been granted `role`, emits a {RoleRevoked} event.     * Requirements:     * - the caller must be `account`."
      },
      "revokeRole(bytes32,address)": {
        "details": "Revokes `role` from `account`.     * If `account` had been granted `role`, emits a {RoleRevoked} event.     * Requirements:     * - the caller must have ``role``'s admin role."
      },
      "safeTransferFrom(address,address,uint256)": {
        "details": "Safely transfers the ownership of a given token ID to another address If the target address is a contract, it must implement {IERC721Receiver-onERC721Received}, which is called upon a safe transfer, and return the magic value `bytes4(keccak256(\"onERC721Received(address,address,uint256,bytes)\"))`; otherwise, the transfer is reverted. Requires the msg.sender to be the owner, approved, or operator",
        "params": {
          "from": "current owner of the token",
          "to": "address to receive the ownership of the given token ID",
          "tokenId": "uint256 ID of the token to be transferred"
        }
      },
      "safeTransferFrom(address,address,uint256,bytes)": {
        "details": "Safely transfers the ownership of a given token ID to another address If the target address is a contract, it must implement {IERC721Receiver-onERC721Received}, which is called upon a safe transfer, and return the magic value `bytes4(keccak256(\"onERC721Received(address,address,uint256,bytes)\"))`; otherwise, the transfer is reverted. Requires the _msgSender() to be the owner, approved, or operator",
        "params": {
          "_data": "bytes data to send along with a safe transfer check",
          "from": "current owner of the token",
          "to": "address to receive the ownership of the given token ID",
          "tokenId": "uint256 ID of the token to be transferred"
        }
      },
      "setApprovalForAll(address,bool)": {
        "details": "Sets or unsets the approval of a given operator An operator is allowed to transfer all tokens of the sender on their behalf.",
        "params": {
          "approved": "representing the status of the approval to be set",
          "operator": "operator address to set the approval"
        }
      },
      "supportsInterface(bytes4)": {
        "details": "See {IERC165-supportsInterface}.     * Time complexity O(1), guaranteed to always use less than 30 000 gas."
      },
      "symbol()": {
        "details": "Gets the token symbol.",
        "returns": {
          "_0": "string representing the token symbol"
        }
      },
      "tokenByIndex(uint256)": {
        "details": "Gets the token ID at a given index of all the tokens in this contract Reverts if the index is greater or equal to the total number of tokens.",
        "params": {
          "index": "uint256 representing the index to be accessed of the tokens list"
        },
        "returns": {
          "_0": "uint256 token ID at the given index of the tokens list"
        }
      },
      "tokenOfOwnerByIndex(address,uint256)": {
        "details": "Gets the token ID at a given index of the tokens list of the requested owner.",
        "params": {
          "index": "uint256 representing the index to be accessed of the requested tokens list",
          "owner": "address owning the tokens list to be accessed"
        },
        "returns": {
          "_0": "uint256 token ID at the given index of the tokens list owned by the requested address"
        }
      },
      "tokenURI(uint256)": {
        "details": "Returns the URI for a given token ID. May return an empty string.     * If a base URI is set (via {_setBaseURI}), it is added as a prefix to the token's own URI (via {_setTokenURI}).     * If there is a base URI but no token URI, the token's ID will be used as its URI when appending it to the base URI. This pattern for autogenerated token URIs can lead to large gas savings.     * .Examples |=== |`_setBaseURI()` |`_setTokenURI()` |`tokenURI()` | \"\" | \"\" | \"\" | \"\" | \"token.uri/123\" | \"token.uri/123\" | \"token.uri/\" | \"123\" | \"token.uri/123\" | \"token.uri/\" | \"\" | \"token.uri/<tokenId>\" |===     * Requirements:     * - `tokenId` must exist."
      },
      "totalSupply()": {
        "details": "Gets the total amount of tokens stored by the contract.",
        "returns": {
          "_0": "uint256 representing the total amount of tokens"
        }
      },
      "transferFrom(address,address,uint256)": {
        "details": "Transfers the ownership of a given token ID to another address. Usage of this method is discouraged, use {safeTransferFrom} whenever possible. Requires the msg.sender to be the owner, approved, or operator.",
        "params": {
          "from": "current owner of the token",
          "to": "address to receive the ownership of the given token ID",
          "tokenId": "uint256 ID of the token to be transferred"
        }
      },
      "unpause()": {
        "details": "Unpauses all token transfers.     * See {ERC721Pausable} and {Pausable-_unpause}.     * Requirements:     * - the caller must have the `PAUSER_ROLE`."
      }
    }
  },
  "userdoc": {
    "methods": {}
  }
}