{
  "contractName": "GenericHandler",
  "abi": [
    {
      "inputs": [
        {
          "internalType": "address",
          "name": "bridgeAddress",
          "type": "address"
        },
        {
          "internalType": "bytes32[]",
          "name": "initialResourceIDs",
          "type": "bytes32[]"
        },
        {
          "internalType": "address[]",
          "name": "initialContractAddresses",
          "type": "address[]"
        },
        {
          "internalType": "bytes4[]",
          "name": "initialDepositFunctionSignatures",
          "type": "bytes4[]"
        },
        {
          "internalType": "bytes4[]",
          "name": "initialExecuteFunctionSignatures",
          "type": "bytes4[]"
        }
      ],
      "stateMutability": "nonpayable",
      "type": "constructor"
    },
    {
      "inputs": [],
      "name": "_bridgeAddress",
      "outputs": [
        {
          "internalType": "address",
          "name": "",
          "type": "address"
        }
      ],
      "stateMutability": "view",
      "type": "function"
    },
    {
      "inputs": [
        {
          "internalType": "address",
          "name": "",
          "type": "address"
        }
      ],
      "name": "_contractAddressToDepositFunctionSignature",
      "outputs": [
        {
          "internalType": "bytes4",
          "name": "",
          "type": "bytes4"
        }
      ],
      "stateMutability": "view",
      "type": "function"
    },
    {
      "inputs": [
        {
          "internalType": "address",
          "name": "",
          "type": "address"
        }
      ],
      "name": "_contractAddressToExecuteFunctionSignature",
      "outputs": [
        {
          "internalType": "bytes4",
          "name": "",
          "type": "bytes4"
        }
      ],
      "stateMutability": "view",
      "type": "function"
    },
    {
      "inputs": [
        {
          "internalType": "address",
          "name": "",
          "type": "address"
        }
      ],
      "name": "_contractAddressToResourceID",
      "outputs": [
        {
          "internalType": "bytes32",
          "name": "",
          "type": "bytes32"
        }
      ],
      "stateMutability": "view",
      "type": "function"
    },
    {
      "inputs": [
        {
          "internalType": "address",
          "name": "",
          "type": "address"
        }
      ],
      "name": "_contractWhitelist",
      "outputs": [
        {
          "internalType": "bool",
          "name": "",
          "type": "bool"
        }
      ],
      "stateMutability": "view",
      "type": "function"
    },
    {
      "inputs": [
        {
          "internalType": "uint8",
          "name": "",
          "type": "uint8"
        },
        {
          "internalType": "uint64",
          "name": "",
          "type": "uint64"
        }
      ],
      "name": "_depositRecords",
      "outputs": [
        {
          "internalType": "uint8",
          "name": "_destinationChainID",
          "type": "uint8"
        },
        {
          "internalType": "address",
          "name": "_depositer",
          "type": "address"
        },
        {
          "internalType": "bytes32",
          "name": "_resourceID",
          "type": "bytes32"
        },
        {
          "internalType": "bytes",
          "name": "_metaData",
          "type": "bytes"
        }
      ],
      "stateMutability": "view",
      "type": "function"
    },
    {
      "inputs": [
        {
          "internalType": "bytes32",
          "name": "",
          "type": "bytes32"
        }
      ],
      "name": "_resourceIDToContractAddress",
      "outputs": [
        {
          "internalType": "address",
          "name": "",
          "type": "address"
        }
      ],
      "stateMutability": "view",
      "type": "function"
    },
    {
      "inputs": [
        {
          "internalType": "uint64",
          "name": "depositNonce",
          "type": "uint64"
        },
        {
          "internalType": "uint8",
          "name": "destId",
          "type": "uint8"
        }
      ],
      "name": "getDepositRecord",
      "outputs": [
        {
          "components": [
            {
              "internalType": "uint8",
              "name": "_destinationChainID",
              "type": "uint8"
            },
            {
              "internalType": "address",
              "name": "_depositer",
              "type": "address"
            },
            {
              "internalType": "bytes32",
              "name": "_resourceID",
              "type": "bytes32"
            },
            {
              "internalType": "bytes",
              "name": "_metaData",
              "type": "bytes"
            }
          ],
          "internalType": "struct GenericHandler.DepositRecord",
          "name": "",
          "type": "tuple"
        }
      ],
      "stateMutability": "view",
      "type": "function"
    },
    {
      "inputs": [
        {
          "internalType": "bytes32",
          "name": "resourceID",
          "type": "bytes32"
        },
        {
          "internalType": "address",
          "name": "contractAddress",
          "type": "address"
        },
        {
          "internalType": "bytes4",
          "name": "depositFunctionSig",
          "type": "bytes4"
        },
        {
          "internalType": "bytes4",
          "name": "executeFunctionSig",
          "type": "bytes4"
        }
      ],
      "name": "setResource",
      "outputs": [],
      "stateMutability": "nonpayable",
      "type": "function"
    },
    {
      "inputs": [
        {
          "internalType": "bytes32",
          "name": "resourceID",
          "type": "bytes32"
        },
        {
          "internalType": "uint8",
          "name": "destinationChainID",
          "type": "uint8"
        },
        {
          "internalType": "uint64",
          "name": "depositNonce",
          "type": "uint64"
        },
        {
          "internalType": "address",
          "name": "depositer",
          "type": "address"
        },
        {
          "internalType": "bytes",
          "name": "data",
          "type": "bytes"
        }
      ],
      "name": "deposit",
      "outputs": [],
      "stateMutability": "nonpayable",
      "type": "function"
    },
    {
      "inputs": [
        {
          "internalType": "bytes32",
          "name": "resourceID",
          "type": "bytes32"
        },
        {
          "internalType": "bytes",
          "name": "data",
          "type": "bytes"
        }
      ],
      "name": "executeProposal",
      "outputs": [],
      "stateMutability": "nonpayable",
      "type": "function"
    }
  ],
  "bytecode": "0x60806040523480156200001157600080fd5b50604051620013c4380380620013c48339810160408190526200003491620003a8565b82518451146200007b576040517f08c379a000000000000000000000000000000000000000000000000000000000815260040162000072906200047c565b60405180910390fd5b8151835114620000b9576040517f08c379a0000000000000000000000000000000000000000000000000000000008152600401620000729062000536565b8051825114620000f7576040517f08c379a00000000000000000000000000000000000000000000000000000000081526004016200007290620004d9565b600080546001600160a01b0319166001600160a01b0387161781555b84518110156200018a57620001818582815181106200012e57fe5b60200260200101518583815181106200014357fe5b60200260200101518584815181106200015857fe5b60200260200101518585815181106200016d57fe5b60200260200101516200019660201b60201c565b60010162000113565b505050505050620005db565b600084815260026020908152604080832080546001600160a01b039097166001600160a01b031990971687179055948252600381528482209590955560048552838120805460e094851c63ffffffff19918216179091556005865284822080549390941c92169190911790915560069092529020805460ff19166001179055565b600082601f83011262000228578081fd5b81516200023f6200023982620005bb565b62000594565b8181529150602080830190848101818402860182018710156200026157600080fd5b6000805b85811015620002985782516001600160a01b038116811462000285578283fd5b8552938301939183019160010162000265565b50505050505092915050565b600082601f830112620002b5578081fd5b8151620002c66200023982620005bb565b818152915060208083019084810181840286018201871015620002e857600080fd5b60005b848110156200030957815184529282019290820190600101620002eb565b505050505092915050565b600082601f83011262000325578081fd5b8151620003366200023982620005bb565b8181529150602080830190848101818402860182018710156200035857600080fd5b6000805b85811015620002985782517fffffffff000000000000000000000000000000000000000000000000000000008116811462000395578283fd5b855293830193918301916001016200035c565b600080600080600060a08688031215620003c0578081fd5b85516001600160a01b0381168114620003d7578182fd5b60208701519095506001600160401b0380821115620003f4578283fd5b6200040289838a01620002a4565b9550604088015191508082111562000418578283fd5b6200042689838a0162000217565b945060608801519150808211156200043c578283fd5b6200044a89838a0162000314565b9350608088015191508082111562000460578283fd5b506200046f8882890162000314565b9150509295509295909350565b6020808252603c908201527f696e697469616c5265736f7572636549447320616e6420696e697469616c436f60408201527f6e7472616374416464726573736573206c656e206d69736d6174636800000000606082015260800190565b6020808252603d908201527f70726f7669646564206465706f73697420616e6420657865637574652066756e60408201527f6374696f6e207369676e617475726573206c656e206d69736d61746368000000606082015260800190565b602080825260409082018190527f70726f766964656420636f6e74726163742061646472657373657320616e6420908201527f66756e6374696f6e207369676e617475726573206c656e206d69736d61746368606082015260800190565b6040518181016001600160401b0381118282101715620005b357600080fd5b604052919050565b60006001600160401b03821115620005d1578081fd5b5060209081020190565b610dd980620005eb6000396000f3fe608060405234801561001057600080fd5b50600436106100a95760003560e01c8063ba484c0911610071578063ba484c0914610144578063bba8185a14610164578063c54c2a1114610177578063cb6244631461018a578063e248cff21461019d578063ec97d3b4146101b0576100a9565b8063318c136e146100ae57806338995da9146100cc5780634402027f146100e15780637f79bea814610104578063a5c3a98514610124575b600080fd5b6100b66101d0565b6040516100c39190610bd3565b60405180910390f35b6100df6100da366004610a5d565b6101df565b005b6100f46100ef366004610b11565b610415565b6040516100c39493929190610d24565b610117610112366004610988565b6104d9565b6040516100c39190610be7565b610137610132366004610988565b6104ee565b6040516100c39190610bfb565b610157610152366004610add565b610503565b6040516100c39190610cd8565b6100df6101723660046109c2565b6105f6565b6100b66101853660046109aa565b610610565b610137610198366004610988565b61062b565b6100df6101ab366004610a13565b610640565b6101c36101be366004610988565b610781565b6040516100c39190610bf2565b6000546001600160a01b031681565b6101e7610793565b6000606060c4359150604051905081810160200160405260c4360360c482376000888152600260209081526040808320546001600160a01b031680845260069092529091205460ff166102555760405162461bcd60e51b815260040161024c90610c8d565b60405180910390fd5b6001600160a01b03811660009081526004602052604090205460e01b6001600160e01b03198116156103275760608184604051602001610296929190610b86565b60405160208183030381529060405290506000836001600160a01b0316826040516102c19190610bb7565b6000604051808303816000865af19150503d80600081146102fe576040519150601f19603f3d011682016040523d82523d6000602084013e610303565b606091505b50509050806103245760405162461bcd60e51b815260040161024c90610c47565b50505b60405180608001604052808a60ff168152602001886001600160a01b031681526020018b815260200184815250600160008b60ff1660ff16815260200190815260200160002060008a67ffffffffffffffff1667ffffffffffffffff16815260200190815260200160002060008201518160000160006101000a81548160ff021916908360ff16021790555060208201518160000160016101000a8154816001600160a01b0302191690836001600160a01b03160217905550604082015181600101556060820151816002019080519060200190610406929190610840565b50505050505050505050505050565b60016020818152600093845260408085208252928452928290208054818301546002808401805487516101009782161588026000190190911692909204601f810189900489028301890190975286825260ff841697959093046001600160a01b0316959194909291908301828280156104cf5780601f106104a4576101008083540402835291602001916104cf565b820191906000526020600020905b8154815290600101906020018083116104b257829003601f168201915b5050505050905084565b60066020526000908152604090205460ff1681565b60056020526000908152604090205460e01b81565b61050b6108be565b60ff828116600090815260016020818152604080842067ffffffffffffffff89168552825292839020835160808101855281549586168152610100958690046001600160a01b0316818401528184015481860152600280830180548751968116159098026000190190971604601f81018490048402850184019095528484529490936060860193928301828280156105e45780601f106105b9576101008083540402835291602001916105e4565b820191906000526020600020905b8154815290600101906020018083116105c757829003601f168201915b50505050508152505090505b92915050565b6105fe610793565b61060a848484846107bf565b50505050565b6002602052600090815260409020546001600160a01b031681565b60046020526000908152604090205460e01b81565b610648610793565b604080516064803582016060019092529060631936019082376000848152600260209081526040808320546001600160a01b031680845260069092529091205460ff166106a75760405162461bcd60e51b815260040161024c90610c8d565b6001600160a01b03811660009081526005602052604090205460e01b6001600160e01b031981161561077957606081846040516020016106e8929190610b86565b60405160208183030381529060405290506000836001600160a01b0316826040516107139190610bb7565b6000604051808303816000865af19150503d8060008114610750576040519150601f19603f3d011682016040523d82523d6000602084013e610755565b606091505b50509050806107765760405162461bcd60e51b815260040161024c90610c47565b50505b505050505050565b60036020526000908152604090205481565b6000546001600160a01b031633146107bd5760405162461bcd60e51b815260040161024c90610c10565b565b600084815260026020908152604080832080546001600160a01b039097166001600160a01b031990971687179055948252600381528482209590955560048552838120805460e094851c63ffffffff19918216179091556005865284822080549390941c92169190911790915560069092529020805460ff19166001179055565b828054600181600116156101000203166002900490600052602060002090601f016020900481019282601f1061088157805160ff19168380011785556108ae565b828001600101855582156108ae579182015b828111156108ae578251825591602001919060010190610893565b506108ba9291506108e4565b5090565b604080516080810182526000808252602082018190529181019190915260608082015290565b6108fe91905b808211156108ba57600081556001016108ea565b90565b80356001600160a01b03811681146105f057600080fd5b60008083601f840112610929578182fd5b50813567ffffffffffffffff811115610940578182fd5b60208301915083602082850101111561095857600080fd5b9250929050565b803567ffffffffffffffff811681146105f057600080fd5b803560ff811681146105f057600080fd5b600060208284031215610999578081fd5b6109a38383610901565b9392505050565b6000602082840312156109bb578081fd5b5035919050565b600080600080608085870312156109d7578283fd5b843593506109e88660208701610901565b925060408501356109f881610d8a565b91506060850135610a0881610d8a565b939692955090935050565b600080600060408486031215610a27578283fd5b83359250602084013567ffffffffffffffff811115610a44578283fd5b610a5086828701610918565b9497909650939450505050565b60008060008060008060a08789031215610a75578182fd5b86359550610a868860208901610977565b9450610a95886040890161095f565b9350610aa48860608901610901565b9250608087013567ffffffffffffffff811115610abf578283fd5b610acb89828a01610918565b979a9699509497509295939492505050565b60008060408385031215610aef578182fd5b610af9848461095f565b9150610b088460208501610977565b90509250929050565b60008060408385031215610b23578182fd5b823560ff81168114610b33578283fd5b9150602083013567ffffffffffffffff81168114610b4f578182fd5b809150509250929050565b60008151808452610b72816020860160208601610d5e565b601f01601f19169290920160200192915050565b6001600160e01b0319831681528151600090610ba9816004850160208701610d5e565b919091016004019392505050565b60008251610bc9818460208701610d5e565b9190910192915050565b6001600160a01b0391909116815260200190565b901515815260200190565b90815260200190565b6001600160e01b031991909116815260200190565b6020808252601e908201527f73656e646572206d7573742062652062726964676520636f6e74726163740000604082015260600190565b60208082526026908201527f64656c656761746563616c6c20746f20636f6e7472616374416464726573732060408201526519985a5b195960d21b606082015260800190565b6020808252602b908201527f70726f766964656420636f6e747261637441646472657373206973206e6f742060408201526a1dda1a5d195b1a5cdd195960aa1b606082015260800190565b60006020825260ff835116602083015260018060a01b036020840151166040830152604083015160608301526060830151608080840152610d1c60a0840182610b5a565b949350505050565b600060ff8616825260018060a01b038516602083015283604083015260806060830152610d546080830184610b5a565b9695505050505050565b60005b83811015610d79578181015183820152602001610d61565b8381111561060a5750506000910152565b6001600160e01b031981168114610da057600080fd5b5056fea264697066735822122084a9233bf989827fc5bf23b5ee28cbe6b2421a18ce9817e66ce21de7d68d8aab64736f6c63430006040033",
  "source": "pragma solidity 0.6.4;\npragma experimental ABIEncoderV2;\n\nimport \"../interfaces/IGenericHandler.sol\";\n\n/**\n    @title Handles generic deposits and deposit executions.\n    @author ChainSafe Systems.\n    @notice This contract is intended to be used with the Bridge contract.\n */\ncontract GenericHandler is IGenericHandler {\n    address public _bridgeAddress;\n\n    struct DepositRecord {\n        uint8   _destinationChainID;\n        address _depositer;\n        bytes32 _resourceID;\n        bytes   _metaData;\n    }\n\n    // depositNonce => Deposit Record\n    mapping (uint8 => mapping(uint64 => DepositRecord)) public _depositRecords;\n\n    // resourceID => contract address\n    mapping (bytes32 => address) public _resourceIDToContractAddress;\n\n    // contract address => resourceID\n    mapping (address => bytes32) public _contractAddressToResourceID;\n\n    // contract address => deposit function signature\n    mapping (address => bytes4) public _contractAddressToDepositFunctionSignature;\n\n    // contract address => execute proposal function signature\n    mapping (address => bytes4) public _contractAddressToExecuteFunctionSignature;\n\n    // token contract address => is whitelisted\n    mapping (address => bool) public _contractWhitelist;\n\n    modifier onlyBridge() {\n        _onlyBridge();\n        _;\n    }\n\n    function _onlyBridge() private {\n         require(msg.sender == _bridgeAddress, \"sender must be bridge contract\");\n    }\n\n    /**\n        @param bridgeAddress Contract address of previously deployed Bridge.\n        @param initialResourceIDs Resource IDs used to identify a specific contract address.\n        These are the Resource IDs this contract will initially support.\n        @param initialContractAddresses These are the addresses the {initialResourceIDs} will point to, and are the contracts that will be\n        called to perform deposit and execution calls.\n        @param initialDepositFunctionSignatures These are the function signatures {initialContractAddresses} will point to,\n        and are the function that will be called when executing {deposit}\n        @param initialExecuteFunctionSignatures These are the function signatures {initialContractAddresses} will point to,\n        and are the function that will be called when executing {executeProposal}\n\n        @dev {initialResourceIDs}, {initialContractAddresses}, {initialDepositFunctionSignatures},\n        and {initialExecuteFunctionSignatures} must all have the same length. Also,\n        values must be ordered in the way that that index x of any mentioned array\n        must be intended for value x of any other array, e.g. {initialContractAddresses}[0]\n        is the intended address for {initialDepositFunctionSignatures}[0].\n     */\n    constructor(\n        address          bridgeAddress,\n        bytes32[] memory initialResourceIDs,\n        address[] memory initialContractAddresses,\n        bytes4[]  memory initialDepositFunctionSignatures,\n        bytes4[]  memory initialExecuteFunctionSignatures\n    ) public {\n        require(initialResourceIDs.length == initialContractAddresses.length,\n            \"initialResourceIDs and initialContractAddresses len mismatch\");\n\n        require(initialContractAddresses.length == initialDepositFunctionSignatures.length,\n            \"provided contract addresses and function signatures len mismatch\");\n\n        require(initialDepositFunctionSignatures.length == initialExecuteFunctionSignatures.length,\n            \"provided deposit and execute function signatures len mismatch\");\n\n        _bridgeAddress = bridgeAddress;\n\n        for (uint256 i = 0; i < initialResourceIDs.length; i++) {\n            _setResource(\n                initialResourceIDs[i],\n                initialContractAddresses[i],\n                initialDepositFunctionSignatures[i],\n                initialExecuteFunctionSignatures[i]);\n        }\n    }\n\n    /**\n        @param depositNonce This ID will have been generated by the Bridge contract.\n        @param destId ID of chain deposit will be bridged to.\n        @return DepositRecord which consists of:\n        - _destinationChainID ChainID deposited tokens are intended to end up on.\n        - _resourceID ResourceID used when {deposit} was executed.\n        - _depositer Address that initially called {deposit} in the Bridge contract.\n        - _metaData Data to be passed to method executed in corresponding {resourceID} contract.\n    */\n    function getDepositRecord(uint64 depositNonce, uint8 destId) external view returns (DepositRecord memory) {\n        return _depositRecords[destId][depositNonce];\n    }\n\n    /**\n        @notice First verifies {_resourceIDToContractAddress}[{resourceID}] and\n        {_contractAddressToResourceID}[{contractAddress}] are not already set,\n        then sets {_resourceIDToContractAddress} with {contractAddress},\n        {_contractAddressToResourceID} with {resourceID},\n        {_contractAddressToDepositFunctionSignature} with {depositFunctionSig},\n        {_contractAddressToExecuteFunctionSignature} with {executeFunctionSig},\n        and {_contractWhitelist} to true for {contractAddress}.\n        @param resourceID ResourceID to be used when making deposits.\n        @param contractAddress Address of contract to be called when a deposit is made and a deposited is executed.\n        @param depositFunctionSig Function signature of method to be called in {contractAddress} when a deposit is made.\n        @param executeFunctionSig Function signature of method to be called in {contractAddress} when a deposit is executed.\n     */\n    function setResource(\n        bytes32 resourceID,\n        address contractAddress,\n        bytes4 depositFunctionSig,\n        bytes4 executeFunctionSig\n    ) external onlyBridge override {\n\n        _setResource(resourceID, contractAddress, depositFunctionSig, executeFunctionSig);\n    }\n\n    /**\n        @notice A deposit is initiatied by making a deposit in the Bridge contract.\n        @param destinationChainID Chain ID deposit is expected to be bridged to.\n        @param depositNonce This value is generated as an ID by the Bridge contract.\n        @param depositer Address of account making the deposit in the Bridge contract.\n        @param data Consists of: {resourceID}, {lenMetaData}, and {metaData} all padded to 32 bytes.\n        @notice Data passed into the function should be constructed as follows:\n        len(data)                              uint256     bytes  0  - 32\n        data                                   bytes       bytes  64 - END\n        @notice {contractAddress} is required to be whitelisted\n        @notice If {_contractAddressToDepositFunctionSignature}[{contractAddress}] is set,\n        {metaData} is expected to consist of needed function arguments.\n     */\n    function deposit(bytes32 resourceID, uint8 destinationChainID, uint64 depositNonce, address depositer, bytes calldata data) external onlyBridge {\n        bytes32      lenMetadata;\n        bytes memory metadata;\n\n        assembly {\n            // Load length of metadata from data + 64\n            lenMetadata  := calldataload(0xC4)\n            // Load free memory pointer\n            metadata := mload(0x40)\n\n            mstore(0x40, add(0x20, add(metadata, lenMetadata)))\n\n            // func sig (4) + destinationChainId (padded to 32) + depositNonce (32) + depositor (32) +\n            // bytes length (32) + resourceId (32) + length (32) = 0xC4\n\n            calldatacopy(\n                metadata, // copy to metadata\n                0xC4, // copy from calldata after metadata length declaration @0xC4\n                sub(calldatasize(), 0xC4)      // copy size (calldatasize - (0xC4 + the space metaData takes up))\n            )\n        }\n\n        address contractAddress = _resourceIDToContractAddress[resourceID];\n        require(_contractWhitelist[contractAddress], \"provided contractAddress is not whitelisted\");\n\n        bytes4 sig = _contractAddressToDepositFunctionSignature[contractAddress];\n        if (sig != bytes4(0)) {\n            bytes memory callData = abi.encodePacked(sig, metadata);\n            (bool success,) = contractAddress.call(callData);\n            require(success, \"delegatecall to contractAddress failed\");\n        }\n\n        _depositRecords[destinationChainID][depositNonce] = DepositRecord(\n            destinationChainID,\n            depositer,\n            resourceID,\n            metadata\n        );\n    }\n\n    /**\n        @notice Proposal execution should be initiated when a proposal is finalized in the Bridge contract.\n        @param data Consists of {resourceID}, {lenMetaData}, and {metaData}.\n        @notice Data passed into the function should be constructed as follows:\n        len(data)                              uint256     bytes  0  - 32\n        data                                   bytes       bytes  32 - END\n        @notice {contractAddress} is required to be whitelisted\n        @notice If {_contractAddressToExecuteFunctionSignature}[{contractAddress}] is set,\n        {metaData} is expected to consist of needed function arguments.\n     */\n    function executeProposal(bytes32 resourceID, bytes calldata data) external onlyBridge {\n        bytes memory metaData;\n        assembly {\n\n            // metadata has variable length\n            // load free memory pointer to store metadata\n            metaData := mload(0x40)\n            // first 32 bytes of variable length in storage refer to length\n            let lenMeta := calldataload(0x64)\n            mstore(0x40, add(0x60, add(metaData, lenMeta)))\n\n            // in the calldata, metadata is stored @0x64 after accounting for function signature, and 2 previous params\n            calldatacopy(\n                metaData,                     // copy to metaData\n                0x64,                        // copy from calldata after data length declaration at 0x64\n                sub(calldatasize(), 0x64)   // copy size (calldatasize - 0x64)\n            )\n        }\n\n        address contractAddress = _resourceIDToContractAddress[resourceID];\n        require(_contractWhitelist[contractAddress], \"provided contractAddress is not whitelisted\");\n\n        bytes4 sig = _contractAddressToExecuteFunctionSignature[contractAddress];\n        if (sig != bytes4(0)) {\n            bytes memory callData = abi.encodePacked(sig, metaData);\n            (bool success,) = contractAddress.call(callData);\n            require(success, \"delegatecall to contractAddress failed\");\n        }\n    }\n\n    function _setResource(\n        bytes32 resourceID,\n        address contractAddress,\n        bytes4 depositFunctionSig,\n        bytes4 executeFunctionSig\n    ) internal {\n        _resourceIDToContractAddress[resourceID] = contractAddress;\n        _contractAddressToResourceID[contractAddress] = resourceID;\n        _contractAddressToDepositFunctionSignature[contractAddress] = depositFunctionSig;\n        _contractAddressToExecuteFunctionSignature[contractAddress] = executeFunctionSig;\n\n        _contractWhitelist[contractAddress] = true;\n    }\n}\n",
  "sourcePath": "/home/yang/trees/chainbridge-solidity-v1.0.0-eth/contracts/handlers/GenericHandler.sol",
  "compiler": {
    "name": "solc",
    "version": "0.6.4+commit.1dca32f3.Emscripten.clang"
  },
  "schemaVersion": "3.1.0",
  "updatedAt": "2021-04-15T03:29:15.071Z",
  "devdoc": {
    "author": "ChainSafe Systems.",
    "methods": {
      "constructor": {
        "details": "{initialResourceIDs}, {initialContractAddresses}, {initialDepositFunctionSignatures}, and {initialExecuteFunctionSignatures} must all have the same length. Also, values must be ordered in the way that that index x of any mentioned array must be intended for value x of any other array, e.g. {initialContractAddresses}[0] is the intended address for {initialDepositFunctionSignatures}[0].",
        "params": {
          "bridgeAddress": "Contract address of previously deployed Bridge.",
          "initialContractAddresses": "These are the addresses the {initialResourceIDs} will point to, and are the contracts that will be called to perform deposit and execution calls.",
          "initialDepositFunctionSignatures": "These are the function signatures {initialContractAddresses} will point to, and are the function that will be called when executing {deposit}",
          "initialExecuteFunctionSignatures": "These are the function signatures {initialContractAddresses} will point to, and are the function that will be called when executing {executeProposal}",
          "initialResourceIDs": "Resource IDs used to identify a specific contract address. These are the Resource IDs this contract will initially support."
        }
      },
      "deposit(bytes32,uint8,uint64,address,bytes)": {
        "params": {
          "data": "Consists of: {resourceID}, {lenMetaData}, and {metaData} all padded to 32 bytes.",
          "depositNonce": "This value is generated as an ID by the Bridge contract.",
          "depositer": "Address of account making the deposit in the Bridge contract.",
          "destinationChainID": "Chain ID deposit is expected to be bridged to."
        }
      },
      "executeProposal(bytes32,bytes)": {
        "params": {
          "data": "Consists of {resourceID}, {lenMetaData}, and {metaData}."
        }
      },
      "getDepositRecord(uint64,uint8)": {
        "params": {
          "depositNonce": "This ID will have been generated by the Bridge contract.",
          "destId": "ID of chain deposit will be bridged to."
        },
        "returns": {
          "_0": "DepositRecord which consists of: - _destinationChainID ChainID deposited tokens are intended to end up on. - _resourceID ResourceID used when {deposit} was executed. - _depositer Address that initially called {deposit} in the Bridge contract. - _metaData Data to be passed to method executed in corresponding {resourceID} contract."
        }
      },
      "setResource(bytes32,address,bytes4,bytes4)": {
        "params": {
          "contractAddress": "Address of contract to be called when a deposit is made and a deposited is executed.",
          "depositFunctionSig": "Function signature of method to be called in {contractAddress} when a deposit is made.",
          "executeFunctionSig": "Function signature of method to be called in {contractAddress} when a deposit is executed.",
          "resourceID": "ResourceID to be used when making deposits."
        }
      }
    },
    "title": "Handles generic deposits and deposit executions."
  },
  "userdoc": {
    "methods": {
      "deposit(bytes32,uint8,uint64,address,bytes)": {
        "notice": "A deposit is initiatied by making a deposit in the Bridge contract.Data passed into the function should be constructed as follows: len(data)                              uint256     bytes  0  - 32 data                                   bytes       bytes  64 - END{contractAddress} is required to be whitelistedIf {_contractAddressToDepositFunctionSignature}[{contractAddress}] is set, {metaData} is expected to consist of needed function arguments."
      },
      "executeProposal(bytes32,bytes)": {
        "notice": "Proposal execution should be initiated when a proposal is finalized in the Bridge contract.Data passed into the function should be constructed as follows: len(data)                              uint256     bytes  0  - 32 data                                   bytes       bytes  32 - END{contractAddress} is required to be whitelistedIf {_contractAddressToExecuteFunctionSignature}[{contractAddress}] is set, {metaData} is expected to consist of needed function arguments."
      },
      "setResource(bytes32,address,bytes4,bytes4)": {
        "notice": "First verifies {_resourceIDToContractAddress}[{resourceID}] and {_contractAddressToResourceID}[{contractAddress}] are not already set, then sets {_resourceIDToContractAddress} with {contractAddress}, {_contractAddressToResourceID} with {resourceID}, {_contractAddressToDepositFunctionSignature} with {depositFunctionSig}, {_contractAddressToExecuteFunctionSignature} with {executeFunctionSig}, and {_contractWhitelist} to true for {contractAddress}."
      }
    },
    "notice": "This contract is intended to be used with the Bridge contract."
  }
}