{
  "contractName": "HandlerHelpers",
  "abi": [
    {
      "inputs": [],
      "name": "_bridgeAddress",
      "outputs": [
        {
          "internalType": "address",
          "name": "",
          "type": "address"
        }
      ],
      "stateMutability": "view",
      "type": "function"
    },
    {
      "inputs": [
        {
          "internalType": "address",
          "name": "",
          "type": "address"
        }
      ],
      "name": "_burnList",
      "outputs": [
        {
          "internalType": "bool",
          "name": "",
          "type": "bool"
        }
      ],
      "stateMutability": "view",
      "type": "function"
    },
    {
      "inputs": [
        {
          "internalType": "address",
          "name": "",
          "type": "address"
        }
      ],
      "name": "_contractWhitelist",
      "outputs": [
        {
          "internalType": "bool",
          "name": "",
          "type": "bool"
        }
      ],
      "stateMutability": "view",
      "type": "function"
    },
    {
      "inputs": [
        {
          "internalType": "bytes32",
          "name": "",
          "type": "bytes32"
        }
      ],
      "name": "_resourceIDToTokenContractAddress",
      "outputs": [
        {
          "internalType": "address",
          "name": "",
          "type": "address"
        }
      ],
      "stateMutability": "view",
      "type": "function"
    },
    {
      "inputs": [
        {
          "internalType": "address",
          "name": "",
          "type": "address"
        }
      ],
      "name": "_tokenContractAddressToResourceID",
      "outputs": [
        {
          "internalType": "bytes32",
          "name": "",
          "type": "bytes32"
        }
      ],
      "stateMutability": "view",
      "type": "function"
    },
    {
      "inputs": [],
      "name": "_wtokenAddress",
      "outputs": [
        {
          "internalType": "address",
          "name": "",
          "type": "address"
        }
      ],
      "stateMutability": "view",
      "type": "function"
    },
    {
      "inputs": [
        {
          "internalType": "bytes32",
          "name": "resourceID",
          "type": "bytes32"
        },
        {
          "internalType": "address",
          "name": "contractAddress",
          "type": "address"
        }
      ],
      "name": "setResource",
      "outputs": [],
      "stateMutability": "nonpayable",
      "type": "function"
    },
    {
      "inputs": [
        {
          "internalType": "address",
          "name": "contractAddress",
          "type": "address"
        }
      ],
      "name": "setBurnable",
      "outputs": [],
      "stateMutability": "nonpayable",
      "type": "function"
    },
    {
      "inputs": [
        {
          "internalType": "address",
          "name": "tokenAddress",
          "type": "address"
        },
        {
          "internalType": "address",
          "name": "recipient",
          "type": "address"
        },
        {
          "internalType": "uint256",
          "name": "amountOrTokenID",
          "type": "uint256"
        }
      ],
      "name": "withdraw",
      "outputs": [],
      "stateMutability": "nonpayable",
      "type": "function"
    }
  ],
  "bytecode": "0x608060405234801561001057600080fd5b5061042d806100206000396000f3fe608060405234801561001057600080fd5b50600436106100935760003560e01c80636a70d081116100665780636a70d081146101095780637f79bea814610143578063b8fa373614610169578063c8ba6c8714610195578063d9caed12146101cd57610093565b806307b7ed99146100985780630a6d55d8146100c0578063318c136e146100f957806353ec410514610101575b600080fd5b6100be600480360360208110156100ae57600080fd5b50356001600160a01b0316610203565b005b6100dd600480360360208110156100d657600080fd5b5035610217565b604080516001600160a01b039092168252519081900360200190f35b6100dd610232565b6100dd610241565b61012f6004803603602081101561011f57600080fd5b50356001600160a01b0316610250565b604080519115158252519081900360200190f35b61012f6004803603602081101561015957600080fd5b50356001600160a01b0316610265565b6100be6004803603604081101561017f57600080fd5b50803590602001356001600160a01b031661027a565b6101bb600480360360208110156101ab57600080fd5b50356001600160a01b0316610290565b60408051918252519081900360200190f35b6100be600480360360608110156101e357600080fd5b506001600160a01b038135811691602081013590911690604001356102a2565b61020b6102a7565b61021481610308565b50565b6002602052600090815260409020546001600160a01b031681565b6000546001600160a01b031681565b6001546001600160a01b031681565b60056020526000908152604090205460ff1681565b60046020526000908152604090205460ff1681565b6102826102a7565b61028c8282610383565b5050565b60036020526000908152604090205481565b505050565b6000546001600160a01b03163314610306576040805162461bcd60e51b815260206004820152601e60248201527f73656e646572206d7573742062652062726964676520636f6e74726163740000604482015290519081900360640190fd5b565b6001600160a01b03811660009081526004602052604090205460ff1661035f5760405162461bcd60e51b81526004018080602001828103825260248152602001806103d46024913960400191505060405180910390fd5b6001600160a01b03166000908152600560205260409020805460ff19166001179055565b600082815260026020908152604080832080546001600160a01b039095166001600160a01b031990951685179055928252600381528282209390935560049092529020805460ff1916600117905556fe70726f766964656420636f6e7472616374206973206e6f742077686974656c6973746564a2646970667358221220a9969e47232cf42935184b2b785f86b36d3b4bda9d7163540afa52131a8d791b64736f6c63430006040033",
  "source": "pragma solidity 0.6.4;\n\nimport \"../interfaces/IERCHandler.sol\";\n\n/**\n    @title Function used across handler contracts.\n    @author ChainSafe Systems.\n    @notice This contract is intended to be used with the Bridge contract.\n */\ncontract HandlerHelpers is IERCHandler {\n    address public _bridgeAddress;\n    address public override _wtokenAddress;\n\n    // resourceID => token contract address\n    mapping (bytes32 => address) public _resourceIDToTokenContractAddress;\n\n    // token contract address => resourceID\n    mapping (address => bytes32) public _tokenContractAddressToResourceID;\n\n    // token contract address => is whitelisted\n    mapping (address => bool) public _contractWhitelist;\n\n    // token contract address => is burnable\n    mapping (address => bool) public _burnList;\n\n    modifier onlyBridge() {\n        _onlyBridge();\n        _;\n    }\n\n    function _onlyBridge() private {\n        require(msg.sender == _bridgeAddress, \"sender must be bridge contract\");\n    }\n\n    /**\n        @notice First verifies {_resourceIDToContractAddress}[{resourceID}] and\n        {_contractAddressToResourceID}[{contractAddress}] are not already set,\n        then sets {_resourceIDToContractAddress} with {contractAddress},\n        {_contractAddressToResourceID} with {resourceID},\n        and {_contractWhitelist} to true for {contractAddress}.\n        @param resourceID ResourceID to be used when making deposits.\n        @param contractAddress Address of contract to be called when a deposit is made and a deposited is executed.\n     */\n    function setResource(bytes32 resourceID, address contractAddress) external override onlyBridge {\n\n        _setResource(resourceID, contractAddress);\n    }\n\n    /**\n        @notice First verifies {contractAddress} is whitelisted, then sets {_burnList}[{contractAddress}]\n        to true.\n        @param contractAddress Address of contract to be used when making or executing deposits.\n     */\n    function setBurnable(address contractAddress) external override onlyBridge{\n        _setBurnable(contractAddress);\n    }\n\n    /**\n        @notice Used to manually release funds from ERC safes.\n        @param tokenAddress Address of token contract to release.\n        @param recipient Address to release tokens to.\n        @param amountOrTokenID Either the amount of ERC20 tokens or the ERC721 token ID to release.\n     */\n    function withdraw(address tokenAddress, address recipient, uint256 amountOrTokenID) external virtual override {}\n\n    function _setResource(bytes32 resourceID, address contractAddress) internal {\n        _resourceIDToTokenContractAddress[resourceID] = contractAddress;\n        _tokenContractAddressToResourceID[contractAddress] = resourceID;\n\n        _contractWhitelist[contractAddress] = true;\n    }\n\n    function _setBurnable(address contractAddress) internal {\n        require(_contractWhitelist[contractAddress], \"provided contract is not whitelisted\");\n        _burnList[contractAddress] = true;\n    }\n}\n",
  "sourcePath": "/home/yang/trees/chainbridge-solidity-v1.0.0-eth/contracts/handlers/HandlerHelpers.sol",
  "compiler": {
    "name": "solc",
    "version": "0.6.4+commit.1dca32f3.Emscripten.clang"
  },
  "schemaVersion": "3.1.0",
  "updatedAt": "2021-04-15T03:29:15.081Z",
  "devdoc": {
    "author": "ChainSafe Systems.",
    "methods": {
      "setBurnable(address)": {
        "params": {
          "contractAddress": "Address of contract to be used when making or executing deposits."
        }
      },
      "setResource(bytes32,address)": {
        "params": {
          "contractAddress": "Address of contract to be called when a deposit is made and a deposited is executed.",
          "resourceID": "ResourceID to be used when making deposits."
        }
      },
      "withdraw(address,address,uint256)": {
        "params": {
          "amountOrTokenID": "Either the amount of ERC20 tokens or the ERC721 token ID to release.",
          "recipient": "Address to release tokens to.",
          "tokenAddress": "Address of token contract to release."
        }
      }
    },
    "title": "Function used across handler contracts."
  },
  "userdoc": {
    "methods": {
      "setBurnable(address)": {
        "notice": "First verifies {contractAddress} is whitelisted, then sets {_burnList}[{contractAddress}] to true."
      },
      "setResource(bytes32,address)": {
        "notice": "First verifies {_resourceIDToContractAddress}[{resourceID}] and {_contractAddressToResourceID}[{contractAddress}] are not already set, then sets {_resourceIDToContractAddress} with {contractAddress}, {_contractAddressToResourceID} with {resourceID}, and {_contractWhitelist} to true for {contractAddress}."
      },
      "withdraw(address,address,uint256)": {
        "notice": "Used to manually release funds from ERC safes."
      }
    },
    "notice": "This contract is intended to be used with the Bridge contract."
  }
}