{
  "contractName": "ThreeArguments",
  "abi": [
    {
      "anonymous": false,
      "inputs": [
        {
          "indexed": false,
          "internalType": "string",
          "name": "argumentOne",
          "type": "string"
        },
        {
          "indexed": false,
          "internalType": "int8",
          "name": "argumentTwo",
          "type": "int8"
        },
        {
          "indexed": false,
          "internalType": "bool",
          "name": "argumentThree",
          "type": "bool"
        }
      ],
      "name": "ThreeArgumentsCalled",
      "type": "event"
    },
    {
      "inputs": [
        {
          "internalType": "string",
          "name": "argumentOne",
          "type": "string"
        },
        {
          "internalType": "int8",
          "name": "argumentTwo",
          "type": "int8"
        },
        {
          "internalType": "bool",
          "name": "argumentThree",
          "type": "bool"
        }
      ],
      "name": "threeArguments",
      "outputs": [],
      "stateMutability": "nonpayable",
      "type": "function"
    }
  ],
  "bytecode": "0x608060405234801561001057600080fd5b50610163806100206000396000f3fe608060405234801561001057600080fd5b506004361061002b5760003560e01c80639280b90514610030575b600080fd5b6100ab6004803603606081101561004657600080fd5b81019060208101813564010000000081111561006157600080fd5b82018360208201111561007357600080fd5b8035906020019184600183028401116401000000008311171561009557600080fd5b9193509150803560000b906020013515156100ad565b005b7fd589183661fa75f94e2db32f4eb7ebb50f4154c160e15eb43f772a46f360a3a88484848460405180806020018460000b60000b8152602001831515151581526020018281038252868682818152602001925080828437600083820152604051601f909101601f191690920182900397509095505050505050a15050505056fea26469706673582212204fc66035eb01439bf3667cf5c04c81be83fc1ba14a56d97be446c6ada34e86be64736f6c63430006040033",
  "source": "pragma solidity 0.6.4;\n\ncontract NoArgument {\n    event NoArgumentCalled();\n\n    function noArgument() external {\n        emit NoArgumentCalled();\n    }\n}\n\ncontract OneArgument {\n    event OneArgumentCalled(uint256 indexed argumentOne);\n\n    function oneArgument(uint256 argumentOne) external {\n        emit OneArgumentCalled(argumentOne);\n    }\n}\n\ncontract TwoArguments {\n    event TwoArgumentsCalled(address[] argumentOne, bytes4 argumentTwo);\n\n    function twoArguments(address[] calldata argumentOne, bytes4 argumentTwo) external {\n        emit TwoArgumentsCalled(argumentOne, argumentTwo);\n    }\n}\n\ncontract ThreeArguments {\n    event ThreeArgumentsCalled(string argumentOne, int8 argumentTwo, bool argumentThree);\n\n    function threeArguments(string calldata argumentOne, int8 argumentTwo, bool argumentThree) external {\n        emit ThreeArgumentsCalled(argumentOne, argumentTwo, argumentThree);\n    }\n}\n",
  "sourcePath": "/home/yang/trees/chainbridge-solidity-v1.0.0-eth/contracts/TestContracts.sol",
  "compiler": {
    "name": "solc",
    "version": "0.6.4+commit.1dca32f3.Emscripten.clang"
  },
  "schemaVersion": "3.1.0",
  "updatedAt": "2021-04-15T03:29:15.047Z",
  "devdoc": {
    "methods": {}
  },
  "userdoc": {
    "methods": {}
  }
}